:020000040000FA
:100000000C9453010C9484010C9484010C9484018D
:100010000C9484010C9484010C9484010C9484014C
:100020000C9484010C9484010C9484010C9484013C
:100030000C9484010C9484010C9484010C9484012C
:100040000C9484010C949E100C9484010C948401F3
:100050000C9484010C94CD100C9484010C945410D5
:100060000C9484010C941E100C94F40F0C948401D5
:100070000C9484010C9484010C9484010C948401EC
:100080000C944B110C9484010C9484010C94840105
:100090000C9484010C9484010C9484010C948401CC
:1000A0000C9484010C9484010C9435110C948401FB
:1000B0000C9484010C9484010C9484010C948401AC
:1000C0000C9484010C9484010C9484010C9484019C
:1000D0000C9484010C9484010C9484010C9484018C
:1000E0000C94840105A84CCDB2D44EB93836A9027F
:1000F0000C50B9918688083CA6AAAA2ABE00000026
:10010000803F0C9462030C9458030C9433030C94BA
:10011000D30C0C94FC010C944A030C9466030C94CD
:10012000550E0C942B030C94B80C0C943C030C94BB
:10013000C90C0C9440030C940A020C94B20A0C945F
:1001400042020C94CA0C0C948F020C942F030C9452
:1001500027030C9415030C9454030C945F0E0C9419
:100160005C030C94200D0C9410030C944E030C941F
:1001700046030C9436030C94030D0C94E8010C9484
:10018000D9010C943E130C94F30C0C94AC010000B8
:100190000A0B02090C0D0E08070304010000000001
:1001A000000000000000000000000000000000004F
:1001B000000000000000000000001211100000000C
:1001C000000000000000000000000000000000002F
:1001D0000000000000002200250028002B002E0057
:1001E0003100340002010000050108010B0100008C
:1001F0002100240027002A002D00300033000101D7
:100200000000040107010A010505050507050808A6
:100210000808020202020A0A080804040404010190
:1002200001010101010103030303030303030407A5
:1002300007070C0C0C0C0C0C0C0C0202020206063C
:100240000606060606060B0B0B0B0B0B0B0B01022F
:1002500010202008081020401020408002010201D8
:100260000804020101020408102040808040201090
:1002700008040201800402018040201008040201E9
:100280000804020101020408102040800102040851
:10029000102040807C3C3E5E2B3D3F2F5B5D3B2C25
:1002A0002A225C003E1311241FBECFEFD1E2DEBF35
:1002B000CDBF00E00CBF25E0A2E8B2E001C01D9276
:1002C000AD39B207E1F712E0A0E0B2E0ECECF7E301
:1002D00000E00BBF02C007900D92A238B107D9F71A
:1002E00011E0C3E5D1E000E006C021970109802FAD
:1002F000FE010E949F19C235D10780E00807A9F7C7
:100300000E9499130C94E41B0C94000090E0FC01F3
:10031000E25BFD4F2491885F9D4FFC01849188230F
:1003200099F090E0880F991FFC01E251FE4FA591D2
:10033000B491FC01EC52FE4F859194918FB7F894E3
:10034000EC91E22BEC938FBF0895DC01ED91FC91D1
:100350000190F081E02D1994AF92BF92CF92DF927D
:10036000EF92FF920F931F93CF93DF936C017B016A
:100370008B01040F151FEB015E01AE18BF08C017FB
:10038000D10759F06991D601ED91FC910190F0816E
:10039000E02DC6011995892B79F7C501DF91CF9121
:1003A0001F910F91FF90EF90DF90CF90BF90AF9093
:1003B0000895FC01538D448D252F30E0842F90E06B
:1003C000821B930B541710F0CF9608950197089550
:1003D000FC01918D828D981761F0A28DAE0FBF2F19
:1003E000B11D5D968C91928D9F5F9F73928F90E06F
:1003F00008958FEF9FEF0895FC01918D828D9817DE
:1004000031F0828DE80FF11D858D90E008958FEF1A
:100410009FEF0895FC01918D228D892F90E0805CE3
:100420009F4F821B91098F739927089585E994E066
:100430000E940A0221E0892B09F420E0822F08950E
:10044000FC01A48DA80FB92FB11DA35ABF4F2C9149
:10045000848D90E001968F739927848FA689B78940
:100460002C93A089B1898C91837080648C93938D37
:10047000848D981306C00288F389E02D80818F7DDA
:1004800080830895EF92FF920F931F93CF93DF9392
:10049000EC0181E0888F9B8D8C8D98131AC0E889C0
:1004A000F989808185FF15C09FB7F894EE89FF898F
:1004B0006083E889F98980818370806480839FBF2D
:1004C00081E090E0DF91CF911F910F91FF90EF902D
:1004D0000895F62E0B8D10E00F5F1F4F0F7311273D
:1004E000E02E8C8D8E110CC00FB607FCFACFE88978
:1004F000F989808185FFF5CFCE010E942002F1CFDE
:10050000EB8DEC0FFD2FF11DE35AFF4FF0829FB7EB
:10051000F8940B8FEA89FB8980818062CFCFCF93DB
:10052000DF93EC01888D8823B9F0AA89BB89E8891B
:10053000F9898C9185FD03C0808186FD0DC00FB6C1
:1005400007FCF7CF8C9185FFF2CF808185FFEDCF3F
:10055000CE010E942002E9CFDF91CF91089580E083
:1005600090E0892B29F00E94160281110E94000060
:1005700080E090E0892B49F080E090E0892B29F021
:100580000E94000081110E94000080E090E0892B11
:1005900049F080E090E0892B29F00E940000811151
:1005A0000E94000080E090E0892B49F080E090E01C
:1005B000892B29F00E94000081110C9400000895FD
:1005C000282F30E0F901E257FE4F9491F901E25BE8
:1005D000FD4F4491285F3D4FF9012491222309F4F6
:1005E00035C0992311F191509231F8F4E92FF0E0E0
:1005F0008827E250FD4F8F4F0C949F192F03330330
:10060000100327032B03150336033C034003460363
:100610004A034E035403580315035C036203660345
:10062000809180008F7780938000E22FF0E0EE0FC2
:10063000FF1FEC52FE4FA591B4918FB7F894EC9147
:10064000611148C040954E234C938FBF089580910F
:1006500080008F7DE8CF80918000877FE4CF84B5D4
:100660008F7784BDE2CF84B58F7DFBCF8091B000C2
:100670008F778093B000D9CF8091B0008F7DF9CF74
:10068000809190008F7780939000CFCF80919000E1
:100690008F7DF9CF80919000877FF5CF8091A0006A
:1006A0008F778093A000C1CF8091A0008F7DF9CF7C
:1006B0008091A000877FF5CF809120018F77809374
:1006C0002001B3CF809120018F7DF9CF809120014F
:1006D000877FF5CF4E2BB8CF2FB7F89460918D025E
:1006E00070918E0280918F02909190022FBF089599
:1006F0008FB7F894809183028FBF089561E0FC0169
:1007000084810E94E0028091820281111092820213
:1007100008958EBD00000DB407FEFDCF8EB508957F
:100720008FEF0C9489030F931F93CF93DF93EC010A
:100730000E946C038B010E9490038F3F69F00E941E
:100740006C03601B710B6C177D07A8F380E0DF91D1
:10075000CF911F910F91089581E0F9CF8CBD9DBD80
:100760000895CF93DF93EC0180918202811109C03B
:1007700081E08093820280913205909133050E943E
:10078000AE0360E08C81DF91CF910C94E0028F92F8
:100790009F92AF92BF92FF920F931F93CF93DF93DD
:1007A000EC01F62E49015A018E81882389F08F8150
:1007B00098859C012F5F3F4F38872F83823092406E
:1007C00018F40E949003F3CFCE010E947E031E8294
:1007D000CE010E94B1038CE291E00E9493038F2D21
:1007E00080640E94890308E110E0D501C401002E55
:1007F00004C0B695A795979587950A94D2F70E945D
:10080000890308501109083F8FEF180771F785E930
:10081000FF2021F028E087E8F2128FEF0E94890381
:1008200010E00E9490038A8787FF04C01F3F11F0E9
:100830001F5FF7CFDF91CF911F910F91FF90BF9076
:10084000AF909F908F900895AF92BF92CF92DF921A
:10085000EF92FF920F931F93CF93DF93EC01690107
:10086000C801820F931F8130924050F58E818823FA
:1008700079F088819981AA81BB8184179507A607A1
:10088000B70731F48F819885C816D90608F042C0A1
:10089000488359836A837B838B85833039F089E071
:1008A000440F551F661F771F8A95D1F79A01AB0138
:1008B00061E1CE010E94C703882389F083E08D8324
:1008C000CE010E947E0380E0DF91CF911F910F91B6
:1008D000FF90EF90DF90CF90BF90AF9008950E946F
:1008E0006C035B010E9490038A878F3F69F40E942A
:1008F0006C036A197B096D327140A0F38FE08D8320
:10090000CE010E947E03DCCF8E3F89F418861F82C1
:1009100081E08E838F8198858C159D0550F40E940F
:1009200090038F819885019698878F83F3CF8DE010
:10093000E6CF6701E00EF11E0E949003F60181935D
:100940006F01EE15FF05C1F78F819885080F191FFC
:1009500018870F838985882319F001151240A0F0AC
:100960008E81882389F08F8198859C012F5F3F4F6E
:1009700038872F838230924018F40E949003F3CF7F
:10098000CE010E947E031E8281E09ECFCF92DF9235
:10099000EF92FF920F93CF93DF93EC01690182E115
:1009A000411551056105710599F08B85833039F04A
:1009B00089E0440F551F661F771F8A95D1F79A016A
:1009C000AB0168E1CE010E94C703882319F084E0DF
:1009D0008D832DC08EEF0E94890376018EEFD81A89
:1009E000F70181917F010E948903EC14FD04C1F796
:1009F0008FEF0E9489038FEF0E9489030E9490036A
:100A00008A878F71853071F4011116C0CE010E9462
:100A10007E0381E0DF91CF910F91FF90EF90DF9007
:100A2000CF90089581E18D83CE010E947E03CE0197
:100A30000E947E0380E0EECF88E592E00E9493035F
:100A4000811102C085E1C4CF20E030E0A9016DE052
:100A5000CE010E94C703882311F084E1B9CF0E9420
:100A600090038111FACFD2CF0F934091840250911D
:100A700085026091860270918702411551056105DA
:100A8000710599F0082F25E932E08091920290914A
:100A900093020E94C604882349F0109284021092A7
:100AA0008502109286021092870281E00F910895CC
:100AB0000F93CF93C82F80919402811105C0C1E09C
:100AC0008C2FCF910F910895409102025091030213
:100AD00060910402709105020C2F25E932E08091AB
:100AE0009202909193020E94C604811102C0C0E05C
:100AF000E7CFCC2321F381E00E9434058823B9F3AA
:100B000010929402DDCF8F929F92AF92BF92EF929C
:100B1000FF920F931F93CF934B015C01C42F8091E1
:100B2000020290910302A0910402B091050288157F
:100B30009905AA05BB0551F181E00E945805811174
:100B40000BC080E0CF911F910F91FF90EF90BF906D
:100B5000AF909F908F90089585E9E82E82E0F82E5F
:100B600000E012E030E020E0B501A40180919202A3
:100B7000909193020E942404882319F38092020228
:100B800090920302A0920402B09205024091940256
:100B90004C2B4093940281E0D5CF8F929F92AF92DD
:100BA000BF92CF92DF92EF92FF92CF9324E335E092
:100BB0003093930220939202882309F46DC040E0A1
:100BC00060E070E0CB010E94830581110BC080E0E2
:100BD000CF91FF90EF90DF90CF90BF90AF909F901C
:100BE0008F900895809153048F7789F780915F04E7
:100BF00090916004A0916104B091620484369105E3
:100C0000A105B10520F3C0905B04D0905C04E09096
:100C10005D04F0905E04C114D104E104F104B9F262
:100C200040E0C701B6010E948305882381F28091CC
:100C3000A0029091A1028115924049F6A091A502CF
:100C4000AA2329F26091A3027091A4026115710593
:100C500009F4BDCF2091A202222309F4B8CFA093BA
:100C600052052093440590E080E030E0E1E0F0E0C0
:100C7000C82FAF01082E02C0440F551F0A94E2F797
:100C80002417350769F041E0480F01968930910536
:100C900079F740934D059BCFC12CD12C7601C0CF65
:100CA00080934D052091AB023091AC0250E040E0C2
:100CB0002115310541F42091B9023091BA024091D9
:100CC000BB025091BC0220934505309346054093EA
:100CD00047055093480546015701860E971EA11CF3
:100CE000B11C8092530590925405A0925505B09284
:100CF0005605E091A602F091A702F0935905E09302
:100D00005805B0E00E94BE17DC01CB01880D991D8B
:100D1000AA1DBB1D80935A0590935B05A0935C05AB
:100D2000B0935D0525E0EE0FFF1F2A95E1F7E15036
:100D3000FE4FEF2FFF27E6958E0F9F1FA11DB11DC0
:100D400080934E0590934F05A0935005B0935105A5
:100D50008090A8029090A902B12CA12C811491043A
:100D600041F48090B5029090B602A090B702B09086
:100D7000B802C81AD90AEA0AFB0AC80CD91CEA1C2C
:100D8000FB1C04C0F694E794D794C794CA95D2F795
:100D9000C0924905D0924A05E0924B05F0924C056D
:100DA00085EFC8168FE0D806E104F10428F48CE042
:100DB0008093570581E00CCF80E125EFC2162FEF1D
:100DC000D206E104F104A0F38091C1029091C20225
:100DD000A091C302B091C40280935A0590935B0521
:100DE000A0935C05B0935D0580E2E2CF4F925F92E5
:100DF0006F927F928F929F92AF92BF92CF92DF922B
:100E0000EF92FF920F931F93CF93DF93EC01423049
:100E100051056105710590F480E0DF91CF911F913C
:100E20000F91FF90EF90DF90CF90BF90AF909F9089
:100E30008F907F906F905F904F90089589859A85ED
:100E4000AB85BC850196A11DB11D84179507A6072A
:100E5000B70710F3CB88DC88ED88FE888F89803156
:100E600009F042C0BB27A72F962F852F48015901B3
:100E70002A013B01C80ED91EEA1EFB1E8091020208
:100E800090910302A0910402B0910502C816D90600
:100E9000EA06FB0699F58F898031C1F5B301A201FD
:100EA000552766277727440F551F4B565D4FFA018C
:100EB00091828082809194028160809394028A89D9
:100EC000823080F08D819E81AF81B8858C0D9D1D13
:100ED000AE1DBF1D8093840290938502A09386026D
:100EE000B093870281E099CFDB01CA01E7E0B695B4
:100EF000A79597958795EA95D1F7B8CF40E0C701B8
:100F0000B6010E9483058111C6CF86CFB301A2012D
:100F10004F77552766277727440F551F440F551FD6
:100F20004B565D4FFA0180829182A282B382C2CF7A
:100F30008F929F92AF92BF92CF92DF92EF92FF92E9
:100F40000F931F93CF93DF93FC0181859285A38537
:100F5000B4850196A11DB11D84179507A607B70793
:100F600070F480E0DF91CF911F910F91FF90EF908F
:100F7000DF90CF90BF90AF909F908F90089583881F
:100F80009488A588B6888789803189F5BB27A72FE3
:100F9000962F852FE9016A017B018F01BC01CD01EC
:100FA000680D791D8A1D9B1D80900202909003029E
:100FB000A0900402B090050286169706A806B9060E
:100FC00001F5F8018789803111F5DD24EE24FF2435
:100FD000F601EE0FFF1FEB56FD4F80819181B0E0CF
:100FE000A0E088839983AA83BB8381E0BBCFDB0128
:100FF000CA01C7E0B695A79597958795CA95D1F789
:10100000C9CF40E00E9483058111DBCFAACFE894CD
:10101000C7F8DD24EE24FF24F601EE0FFF1FEE0FCC
:10102000FF1FEB56FD4F80819181A281B381BF707C
:10103000D8CF4F925F926F927F92AF92BF92CF9232
:10104000DF92EF92FF920F931F93CF93DF9300D025
:101050001F92CDB7DEB78C0149835A836B837C83A3
:101060005901C12CD12C7601412C82E0582E612CE3
:10107000712C49815A816B817C819E012F5F3F4F8A
:10108000C8010E949807882339F1F8018585A301DA
:10109000920104C0220F331F441F551F8A95D2F7B7
:1010A000DA01C901C80ED91EEA1EFB1E49815A8108
:1010B0006B817C818789803111F188EF9FEFAFEFE1
:1010C000BFE0481759076A077B0798F2F501C0820D
:1010D000D182E282F38281E00F900F900F900F9007
:1010E000DF91CF911F910F91FF90EF90DF90CF9004
:1010F000BF90AF907F906F905F904F90089588EF72
:101100009FEFA0E0B0E0DDCFCF93DF93FC0125811E
:10111000222321F080E0DF91CF910895EC018091AE
:101120005705803159F582E08583178A108E118E1C
:10113000128E8091580590915905B0E0A0E025E00D
:10114000880F991FAA1FBB1F2A95D1F7838B948BF9
:10115000A58BB68B80E495E09C8F8B8F81E08C8390
:101160001E821F82188619861A861B861C861D867B
:101170001E861F86188A198A1A8ACDCF803251F6A8
:1011800083E0858340915A0550915B0560915C0531
:1011900070915D05478B508F618F728F9F012D5E1F
:1011A0003F4F80E495E00E9419088111D3CFB2CF60
:1011B0008F929F92AF92BF92CF92DF92EF92FF9267
:1011C0000F931F93CF93DF93EC018D8181110EC09C
:1011D00080E0DF91CF911F910F91FF90EF90DF9012
:1011E000CF90BF90AF909F908F9008950B891C89EE
:1011F0002D893E89041715072607370748F34A014A
:101200005B01823031F48A869B86AC86BD8681E0A4
:10121000E0CF81149104A104B10449F41E821F821D
:10122000188619861A861B861C861D86F0CF0A85AD
:101230001B852C853D85EB8DFC8D858590E0099681
:10124000B901A8014150510961097109082E04C072
:1012500076956795579547950A94D2F7750164017D
:10126000E1E0CE1AD108E108F10804C0F694E79451
:10127000D794C7948A95D2F7C416D506E606F70622
:1012800020F0012B022B032B11F58F89988DA98D4E
:10129000BA8D8E839F83A887B9878E010A5F1F4FFF
:1012A000C114D104E104F10409F4ADCF4E815F8192
:1012B0006885798598018B8D9C8D0E94980791E0B7
:1012C000C91AD108E108F1088111EACF81CFC41A07
:1012D000D50AE60AF70AE1CF3F924F925F926F92EA
:1012E0007F928F929F92AF92BF92CF92DF92EF92B6
:1012F000FF920F931F93CF93DF93CDB7DEB72C9759
:101300000FB6F894DEBF0FBECDBF5C01DC015B966B
:101310008D909C905C9716964D905D906D907C9012
:101320001997411451046104710409F468C0BFEFB6
:101330004B1A5B0A6B0A7B0A312CF401818592857A
:10134000A385B4859C01AD012F5F3F4F4F4F5F4F89
:1013500029873A874B875C87730162011D821E8251
:101360001F821886F40181859285A385B4852D811D
:101370003E814F815885281739074A075B0708F0D7
:1013800056C089859A85AB85BC858C159D05AE05B3
:10139000BF0550F482E0C82ED12CE12CF12C92E054
:1013A000492E512C612C712C9E012F5F3F4FB701AC
:1013B000A601C4010E9498078823C9F189819A81F6
:1013C000AB81BC81892B8A2B8B2B09F1260137013C
:1013D0009FEF491A590A690A790A2D813E814F8186
:1013E00058852F5F3F4F4F4F5F4F2D833E834F8375
:1013F00058873FEFC31AD30AE30AF30AB3CFF401C5
:1014000040805180628073803324339496CFC4141B
:10141000D504E604F70409F70FEF1FEF2FEF3FE0C5
:10142000B701A601C4010E94F606811119C080E02F
:101430002C960FB6F894DEBF0FBECDBFDF91CF91D3
:101440001F910F91FF90EF90DF90CF90BF90AF90E2
:101450009F908F907F906F905F904F903F900895F6
:10146000D50116964D915D916D917C91199741151D
:1014700051056105710539F097018601C4010E948B
:10148000F6068823A1F2D5011696CD92DD92ED9253
:10149000FC921997332051F0D701C6010196A11D86
:1014A000B11DF40180839183A283B383F501878901
:1014B000908DA18DB28D892B8A2B8B2B39F4848151
:1014C000C78AD08EE18EF28E80688483F501848194
:1014D0008062848381E0ACCF1F93CF93DF93FC01C4
:1014E00025812223D1F1162FEC01848187FF2AC0A8
:1014F000668577858089918941E00E9483058823EC
:1015000061F1EA8980E2E89FF0011124EB56FD4F7A
:10151000309719F18D81823040F48B899C89AD8997
:10152000BE89848F958FA68FB78F8F89988D938F63
:10153000828F8F89988DA98DBA8DB58BA48B8C8164
:101540008F778C83111103C08C818F7E8C83812FC8
:10155000DF91CF911F910C94580580E0DF91CF91DE
:101560001F910895FF920F931F93CF93DF93EC0188
:101570008D81813041F090E080E0DF91CF911F912B
:101580000F91FF9008958C8181FFF5CF82FD1BC0E4
:101590000091920210919302C8010E94B1030E942F
:1015A0009003F82EC8010E947E038FEFF812E3CF5C
:1015B0008C8185FF1BC060E0CE010E946C0A8C818B
:1015C0008F7D8C83D8CF4B895C896D897E898A8594
:1015D0009B85AC85BD8584179507A607B707C1F223
:1015E000CE010E94D8088111D3CFC5CF409184028B
:1015F000509185026091860270918702452B462B9F
:10160000472B21F080E00E943405B5CF80618C83A8
:101610002A853B85317080E092E0821B930BADCF31
:10162000CF93DF93EC0161E00E946C0A882311F0F4
:101630001D8281E0DF91CF9108952F923F924F92CA
:101640005F926F927F928F929F92AF92BF92CF9252
:10165000DF92EF92FF920F931F93CF93DF9300D00F
:101660001F921F92CDB7DEB77C015B01342E5D83E4
:10167000DC0115968C911597813009F0CEC0149637
:101680002C9021FECAC022FCB4C0C32CDD80229461
:101690007FE027222094B22DB1702B2ED7011A960D
:1016A0004D915D916D917C911D97C114D10409F408
:1016B00028C15B968D919C915C97FC0174807A9413
:1016C0008A019B0169E036952795179507956A95DC
:1016D000D1F770228A011170711020C00115110517
:1016E000E9F416964D915D916D917C911997411594
:1016F00051056105710509F099C057968D919D912D
:101700000D90BC91A02D0097A105B10509F0B0C0C6
:10171000C7010E946C09882309F47FC080E092E031
:10172000801B910B46018C159D0508F44C01D701D7
:101730005B964D915C915C9716968D919D910D9065
:10174000BC91A02D0297A109B109FA01258504C019
:10175000880F991FAA1FBB1F2A95D2F74685578568
:1017600060897189840F951FA61FB71F9C01AD0169
:10177000270D311D411D511D29013A01811432E00F
:10178000930609F07BC08091020290910302A09120
:101790000402B091050284159505A605B70559F414
:1017A0008FEF9FEFDC018093020290930302A093DE
:1017B0000402B0930502022D9501B301A2018091AC
:1017C0009202909193020E94C604882331F19EEF09
:1017D000B91AC818D908F70182859385A485B585FB
:1017E000880D991DA11DB11D82879387A487B58798
:1017F00055CFF70143895489658976898285938518
:10180000A485B585481759076A077B0709F43DCFBA
:10181000C7010E94D808811138CF81E090E0D7013C
:1018200013969C938E93129780E007C09E012F5FC2
:101830003F4F0E949807811102C090E079C08981D2
:101840009A81AB81BC81F701238D348DF901278901
:1018500048EF5FEF60E070E0203121F048EF5FEF8C
:101860006FEF7FE084179507A607B70708F050CF02
:10187000F70186839783A087B18750CF01151105A3
:1018800099F5D7011A964D915D916D917C911D97B7
:1018900053968D919D910D90BC91A02D481759079D
:1018A0006A077B0708F181E00E945805882309F444
:1018B000B4CF4092020250920302609204027092EE
:1018C000050280919402816080939402C8018B5636
:1018D0009D4FD5019C01280D391DFC012E173F0796
:1018E00059F04D914193FACF41E0C301B2010E94FA
:1018F00083058111EBCF91CF281B390BA20EB31EAC
:1019000068CFF70183899489A589B68984179507DB
:10191000A607B70738F48481438B548B658B768B8D
:1019200080688483F701848183FD1AC0832D9D81A3
:101930000F900F900F900F900F90DF91CF911F910C
:101940000F91FF90EF90DF90CF90BF90AF909F905E
:101950008F907F906F905F904F903F902F90089561
:1019600061E0C7010E946C0A882309F456CFDECFDC
:10197000CF93DF931F92CDB7DEB7698341E050E08C
:10198000BE016F5F7F4F0E941D0B0F90DF91CF91C3
:1019900008950895FC01818D928D009719F061E002
:1019A0000C946C0A0895DC015996ED91FC913097E6
:1019B000B9F083899489A589B68942855385648560
:1019C0007585841B950BA60BB70B811520E8920734
:1019D000A105B10538F08FEF9FE7A0E0B0E00895D2
:1019E00090E080E00895DC0159968D919C910097DC
:1019F00039F0DC01ED91FC910480F581E02D199422
:101A000090E080E00895CF93DF93EC01E98DFA8DAB
:101A1000309749F481E090E09B838A8390E080E0F6
:101A2000DF91CF91089513821282898D9A8D0E9441
:101A30001D0BE98DFA8D22813381232B59F7F0CFCD
:101A4000CF93DF931F92CDB7DEB76983DC01ED91B1
:101A5000FC910280F381E02D41E050E0BE016F5F18
:101A60007F4F19950F90DF91CF9108952F923F925C
:101A70004F925F926F927F928F929F92AF92BF929E
:101A8000CF92DF92EF92FF920F931F93CF93DF934A
:101A900000D0CDB7DEB7FC018581811118C08FEF72
:101AA0009FEF0F900F900F90DF91CF911F910F91AB
:101AB000FF90EF90DF90CF90BF90AF909F908F906E
:101AC0007F906F905F904F903F902F90089584810A
:101AD00080FFE5CF4389548965897689828593851E
:101AE000A485B585312C212C481759076A077B0737
:101AF00019F022242394312C6F012101CE0101968B
:101B00003C01DF011696BB83AA834114510409F4FA
:101B1000C5C0F60142855385648575854A01F1E0AB
:101B20009F22D6015B968D919C915C978A019B01C7
:101B3000E9E03695279517950795EA95D1F715961B
:101B4000EC91E230E9F5FC01628D738D848D958D09
:101B5000600F711F821F931FA12C22E0B22EA818C4
:101B6000B9084A145B0408F45201F601248126FDE9
:101B700004C0A114F2E0BF0671F4009102021091BA
:101B80000302209104023091050206171707280767
:101B9000390709F05EC040E00E948305882309F4FC
:101BA0007ECFC4018B569D4FD3019C012A0D3B1D56
:101BB000FC012E173F0709F46CC041914D93F9CFFA
:101BC000DC011496BC90BA94B0228114910479F48B
:101BD000B1100DC0452B462B472B69F5F6018789BF
:101BE000908DA18DB28D86839783A087B187D60112
:101BF0005B96ED91FC915C9716966D917D918D9120
:101C00009C9119976250710981099109258504C039
:101C1000660F771F881F991F2A95D2F706851785AB
:101C200020893189600F711F821F931F6B0D711DF9
:101C3000811D911D91CFD60116964D915D916D91AB
:101C40007C9119972A813B810E9498078111CFCFFF
:101C500026CF730185019401AB01BC0180919202F2
:101C6000909193020E942404882309F418CF6A0CEF
:101C70007B1CF60182859385A485B5858A0D9B1D05
:101C8000A11DB11D82879387A487B5874A185B0879
:101C90003CCF281B390B620E731EEBCF2A942328EE
:101CA00009F0FDCE898190E0FCCEFC01818D928D02
:101CB000009711F00C94360D8FEF9FEF08950F935E
:101CC0001F93CF93DF93EC01898D9A8D10E000E094
:101CD000009799F00E94360D8C010F3F100769F0B4
:101CE000898D9A8DFC0142855385648575854150A7
:101CF0005109610971090E94D808C801DF91CF918B
:101D00001F910F910895FB0101900020E9F7319791
:101D1000AF01461B570BDC01ED91FC910280F38172
:101D2000E02D19948F929F92AF92BF92EF92FF9203
:101D30000F931F93CF93DF93CDB7DEB7A1970FB665
:101D4000F894DEBF0FBECDBF7C01FA01CB0119A212
:101D5000223008F42AE08E010F5D1F4F822E912C55
:101D6000B12CA12CBF01A50194010E947D19F9019C
:101D7000CA016A300CF5605DD8016E938D01232B8A
:101D8000242B252B79F790E080E0109721F0BD01FE
:101D9000C7010E94830EA1960FB6F894DEBF0FBE56
:101DA000CDBFDF91CF911F910F91FF90EF90BF902A
:101DB000AF909F908F900895695CDECF2F923F92F5
:101DC0004F925F926F927F928F929F92AF92BF924B
:101DD000CF92DF92EF92FF921F93CF93DF93EC01AC
:101DE0006A017B01722EAB019601CB01B6010E9404
:101DF0002F196CE372E0811126C046015701E89467
:101E0000B7F82FEF3FEF4FE75FE7C501B4010E943E
:101E10002F1981110CC02FEF3FEF4FE75FE7C5018E
:101E2000B4010E949A1660E472E0181664F02FEF75
:101E30003FEF4FE75FE4C701B6010E942A19181669
:101E4000B4F464E472E0CE01DF91CF911F91FF9072
:101E5000EF90DF90CF90BF90AF909F908F907F904A
:101E60006F905F904F903F902F900C94830E2FEFC8
:101E70003FEF4FE75FECC701B6010E949A1687FD5E
:101E8000E0CF20E030E0A901C701B6010E949A1618
:101E9000312C212C87FF09C06DE2CE010E94A501E3
:101EA0001C01F7FAF094F7F8F09410E060E070E0AD
:101EB00080E09FE3711641F020E030E040E251E421
:101EC0000E944A181F5FF6CFA70196010E94D917FA
:101ED0002B013C010E94BC184B015C012AE0BC01B3
:101EE000A401CE010E94920E7C01E20CF31C11238E
:101EF000C1F1C501B4010E949F169B01AC01C30151
:101F0000B2010E94D8174B015C016EE2CE010E9423
:101F1000A501E80EF91E115020F120E030E040E26A
:101F200051E4C501B4010E9400172B013C010E943D
:101F3000BC184B01B12CA12C2AE0B501A401CE01A3
:101F40000E94920EE80EF91EC501B4010E949F1670
:101F50009B01AC01C301B2010E94D8174B015C0187
:101F6000DACFC701DF91CF911F91FF90EF90DF9003
:101F7000CF90BF90AF909F908F907F906F905F9029
:101F80004F903F902F900895EF92FF920F931F93E1
:101F9000CF93DF937C018B01FC01428153816481EB
:101FA000758123E0C8010E94DE0EEC0160E2C801E9
:101FB0000E94A501C80FD91FF7014681578160858E
:101FC000718523E0C8010E94DE0EC80FD91F69E6A3
:101FD000C8010E94A5018C0F9D1FDF91CF911F9119
:101FE0000F91FF90EF9008951F920F920FB60F92EE
:101FF00011240BB60F922F933F934F935F936F93E0
:102000007F938F939F93AF93BF93EF93FF9385E954
:1020100094E00E942002FF91EF91BF91AF919F91B8
:102020008F917F916F915F914F913F912F910F9081
:102030000BBE0F900FBE0F901F9018951F920F921E
:102040000FB60F9211240BB60F922F938F939F937D
:10205000EF93FF93E091A504F091A6048081E091B5
:10206000AB04F091AC0482FD1DC090818091AE0460
:102070008F5F8F732091AF04821741F0E091AE041F
:10208000F0E0EB56FB4F958F8093AE04FF91EF91FC
:102090009F918F912F910F900BBE0F900FBE0F90BD
:1020A0001F9018958081F2CF1F920F920FB60F925A
:1020B00011242F933F938F939F93AF93BF9380915E
:1020C0008D0290918E02A0918F02B091900230917A
:1020D0008C0223E0230F2D3758F50196A11DB11D69
:1020E00020938C0280938D0290938E02A0938F0296
:1020F000B09390028091880290918902A0918A0207
:10210000B0918B020196A11DB11D8093880290931E
:102110008902A0938A02B0938B02BF91AF919F91E5
:102120008F913F912F910F900FBE0F901F90189598
:1021300026E8230F0296A11DB11DD2CF1F920F9248
:102140000FB60F9211240BB60F922F933F934F931C
:102150005F936F937F938F939F93AF93BF93EF930F
:10216000FF938EE795E00E94550E82B9109285008C
:1021700010928400FF91EF91BF91AF919F918F9149
:102180007F916F915F914F913F912F910F900BBE77
:102190000F900FBE0F901F9018951F920F920FB6C1
:1021A0000F9211240BB60F92CF92DF92EF92FF9213
:1021B0002F933F934F935F936F937F938F939F934F
:1021C000AF93BF93CF93DF93EF93FF938EE795E0A9
:1021D0000E94550EEC016091000270910102072EE1
:1021E000000C880B990B0E94A11620E030E04CED0A
:1021F00053E40E94001720E030EC4AE557E40E94C7
:102200004A180E9445186B017C01BE01DD0F880B46
:10221000990B0E94A116A70196010E9400170E9427
:10222000BC1862B9809100029091010201969093CE
:1022300001028093000216BCFF91EF91DF91CF91D4
:10224000BF91AF919F918F917F916F915F914F91CE
:102250003F912F91FF90EF90DF90CF900F900BBEAA
:102260000F900FBE0F901F9018951F920F920FB6F0
:102270000F9211248F9380917D0587FD8F5F859547
:1022800082B91092A5001092A4008F910F900FBEFA
:102290000F901F9018951F920F920FB60F92112456
:1022A0000BB60F922F933F934F935F936F937F9350
:1022B0008F939F93AF93BF93EF93FF938EE795E038
:1022C0000E94550E80937D0582B910929500109260
:1022D0009400FF91EF91BF91AF919F918F917F916A
:1022E0006F915F914F913F912F910F900BBE0F9087
:1022F0000FBE0F901F901895FC01DB0112968D9177
:102300009C9113979383828382E292E091838083EE
:1023100014968C911497848315968C9115978583C8
:1023200016964D915D916D917C91199746835783D7
:10233000608771871A964D915D916D917C911D9783
:1023400042875387648775871E964D915D916D9185
:102350007C91519746875787608B718B52968C91F1
:102360005297828B53964D915D916D917C915697CA
:10237000438B548B658B768B57964D915D916D9108
:102380007C915A97478B508F618F728F5B968D919E
:102390009C91948F838F08950F931F93CF93DF9316
:1023A000EC0180E2689FF0011124EB56FD4F6A8B2F
:1023B0008091020290910302A0910402B091050263
:1023C0008E879F87A88BB98B0489158930E020E020
:1023D0009801112700270F8B188F298F3A8F828D34
:1023E000938DB0E0A0E0AC01BD01402B512B622BDE
:1023F000732B4F8B588F698F7A8F83858871A9F4DF
:10240000848D958DA68DB78D8B8B9C8BAD8BBE8B64
:1024100081E08D8381E08C831E821F82188619865D
:102420001A861B861C861D8603C0803131F080E031
:10243000DF91CF911F910F9108959E012D5E3F4F27
:102440008B8D9C8D0E941908882389F384E0E1CF4D
:10245000AF92BF92CF92DF92EF92FF920F931F93B2
:10246000CF93DF9300D000D000D01F921F92CDB742
:10247000DEB76C01FE013196CE010C967F0120E2A1
:102480002193E817F907E1F7DA0120E037E09D91A1
:10249000B92E9923A9F19E32B9F43A3091F480E033
:1024A0002B960FB6F894DEBF0FBECDBFDF91CF9154
:1024B0001F910F91FF90EF90DF90CF90BF90AF9062
:1024C000089528E03AE0E3CFE4E9F2E0849188233C
:1024D00021F031969813FACFE2CF321700F38FED47
:1024E000890F8E35E0F68FE9890F8A3118F440EEB6
:1024F000B42EB90EF701E20FF11DB0822F5FC7CFE6
:102500008981803261F28B01FB01838D948DF6010C
:10251000948F838FFB011682178210861186128694
:10252000138614861586F80182859385A485B58562
:10253000438954896589768984179507A607B70763
:1025400008F0ADCF25E0B695A795979587952A9584
:10255000D1F7F82FFF70AF2EF8018581823008F493
:102560009ECFC8010E94360D97FD99CFF801828554
:102570009385A485B5854F96A11DB11D828793874C
:10258000A487B587F0E2AF9EB00111246B567D4F52
:102590006115710509F483CFFB018081882309F15E
:1025A000853E19F4B11032C01EC04BE050E0C701A7
:1025B0000E94AD1B892B09F0B6CF6A2DC6012B9660
:1025C0000FB6F894DEBF0FBECDBFDF91CF911F9144
:1025D0000F91FF90EF90DF90CF90BF90AF900C9451
:1025E000CC11B1105CCFF601A28A809102029091C9
:1025F0000302A0910402B091050286879787A08B01
:10260000B18BFB018081882309F449CFBB24B394AB
:102610008ACFEF92FF920F931F93CF93DF93EC013A
:102620007B018A011B821A8288EE93E0A0E0B0E071
:102630008C839D83AE83BF838EE292E099838883EF
:102640008DE190E00E94A7199A8F898F009779F009
:102650002DE1F701DC0101900D922A95E1F74CE0A4
:1026600050E0B801CE010C960E94D51B188EDF9168
:10267000CF911F910F91FF90EF900895E5E9F4E05D
:102680001382128288EE93E0A0E0B0E08483958309
:10269000A683B78320E132E03183208325EC30E04C
:1026A0003587248724EC30E03787268720EC30E01C
:1026B000318B208B21EC30E0338B228B22EC30E00D
:1026C000358B248B26EC30E0378B268B118E128EC7
:1026D000138E148EE2E3F5E020E520831182E4E31B
:1026E000F5E0158216821186138642E050E060E024
:1026F00070E0448755876687778713A215A614A6CE
:1027000022E232E033A722A717A6EEE7F5E0138214
:10271000128284839583A683B7838EE292E09183AD
:102720008083128E118E148688E492E080937D055A
:102730000895CF93DF93CDB7DEB7C257D1090FB657
:10274000F894DEBF0FBECDBF789484B5826084BD9F
:1027500084B5816084BD85B5826085BD85B58160A5
:1027600085BD80916E00816080936E001092810023
:1027700080918100826080938100809181008160DE
:10278000809381008091800081608093800080919F
:10279000B10084608093B1008091B000816080932B
:1027A000B0008091910082608093910080919100AF
:1027B000816080939100809190008160809390006F
:1027C0008091A10082608093A1008091A10081602E
:1027D0008093A1008091A00081608093A0008091EF
:1027E0002101826080932101809121018160809389
:1027F00021018091200181608093200180917A00E5
:10280000846080937A0080917A00826080937A005D
:1028100080917A00816080937A0080917A0080684C
:1028200080937A001092C1008FEF81B9E091A504E6
:10283000F091A60482E08083E091A104F091A204CB
:102840001082E091A304F091A4048FEC8083109295
:10285000AD04E091A904F091AA0486E08083E091A0
:10286000A704F091A804808180618083E091A7048F
:10287000F091A804808188608083E091A704F091A2
:10288000A804808180688083E091A704F091A80467
:1028900080818F7D808380916305882321F08EE580
:1028A00095E00E94100B10923F0510923D0510928A
:1028B0003A051092390581E3809338050E946C0334
:1028C0008B01809138050E94860161E08091380576
:1028D0000E94E002FFB6F89480919102811124C019
:1028E000EDE3F2E08491E3E8F2E09491E82FF0E088
:1028F000EE0FFF1FE251FE4FA591B491EC91E92339
:1029000021F461E085E30E94E00285E30E948601F4
:102910008CB580618CBD8CB580648CBD84E30E94D5
:10292000860183E30E948601809191028F5F8093EC
:102930009102FFBE82E580933205109233058091AB
:102940003205909133050E94AE032AE0F22E8FEFFC
:102950000E948903FA94F110FACF84E395E00E9473
:10296000B10320E030E0A90160E084E395E00E943B
:10297000C703F82E80933E0581E0F81679F00E9497
:102980006C03601B710B613D774058F381E08093CD
:10299000390584E395E00E947E03FFCF2AEA31E007
:1029A00040E050E068E084E395E00E94C70382FFC6
:1029B0002AC0F0923F0580913F05C12CD12C7601B1
:1029C000823029F4C12CD12CE12C80E4F82E20E0B7
:1029D00030E0A90167E384E395E00E94C703A70103
:1029E000960169E284E395E00E94C70380933E0567
:1029F0008823D1F00E946C03601B710B613D77400E
:102A000030F388E0C4CF94E0F92E0E9490038093C5
:102A10003E05FA94F110F9CF8A3A11F082E0B7CF6F
:102A200082E080933F05C7CF80913F058230D1F48B
:102A300020E030E0A9016AE384E395E00E94C70347
:102A4000882311F086E0A3CF0E949003807C803C15
:102A500019F483E080933F050E9490030E94900345
:102A60000E94900384E395E00E947E0380E58093BA
:102A700032051092330581E00E94CD05882339F09C
:102A80008EE595E00E948408811107C086CF80E022
:102A90000E94CD058111F4CF80CF6AE472E085E910
:102AA00094E00E94830E60E572E085E994E00E9464
:102AB000830E6CE070E090E080E00E94CC1A5C0134
:102AC000009799F519A218A282E292E09F8F8E8F4B
:102AD0001BA21C821B829A8389831E824E01FEE107
:102AE0008F0E911CC4010E94840865018E010F5F46
:102AF0001F4F240118016FE270E0C6010E94C31B42
:102B0000009709F461C0F60120812F32A9F4FFEF8C
:102B1000CF1ADF0A902F812F8201492E582E942D33
:102B2000852D2801092F182FE6CFFC01108263E5BF
:102B300072E00E94CE1BC6CF8C198D3008F08CE05D
:102B4000E82EF12CA701B601CE01885A9F4F0E94B2
:102B5000D51BE8E5F0E0EC0FFD1FEE0DFF1D108228
:102B6000C8010E94100BF80185818823F1F01EAE88
:102B70001DAE82E292E09CAF8BAF21961FAE2197F3
:102B80006A0C7B1CF3018081811127C0BE01655C4A
:102B90007F4FC1010E947C114FE552E0B101CE018F
:102BA000885A9F4F0E9409133FC0AE01485A5F4F99
:102BB000B201C8010E9428128823C9F2CE0CDF1C82
:102BC000C2010E94100BABCF36016A187B08B2011C
:102BD000CE01CB960E947C11D3CF19A218A282E21B
:102BE00092E09F8F8E8F1BA221968FAD219781112E
:102BF0008DC06C961FAE1EAE6C9788EE93E0A0E081
:102C0000B0E0A0968CAF9DAFAEAFBFAFA0978EE205
:102C100092E06A969FAF8EAF6A97E3961FAE1EAEA4
:102C2000E397A5961FAEA5976C968EAD9FAD6C975A
:102C30009093810580938005A0968CAD9DADAEAD3F
:102C4000BFADA0978093820590938305A0938405E0
:102C5000B0938505A4968CAD9DADAEADBFADA497E8
:102C60008093860590938705A0938805B093890586
:102C7000A8E5B0E0AC0FBD1F1C96EAE8F5E08D9129
:102C8000819385E0E739F807D1F7E3968EAD9FADE4
:102C9000E3979093980580939705009731F04CE265
:102CA00050E060E070E00E94D80861E672E085E9DB
:102CB00094E00E94830E60E572E085E994E00E9452
:102CC000830EA114B10419F0C5010E94431AF894AF
:102CD00098E09093910082E080939100809371003E
:102CE0002CE730E030939900209398009093A10056
:102CF0008093A100809372008EE390E09093A900EE
:102D00008093A80078940E94AF02FDCFA301BE017A
:102D1000655C7F4FC4010E942812882309F469CFA3
:102D2000CE01CB960E94100BB401C1010E947C1110
:102D3000A30134CF0E94DC1608F481E00895E894E2
:102D400009C097FB3EF490958095709561957F4FF3
:102D50008F4F9F4F9923A9F0F92F96E9BB279395A1
:102D6000F695879577956795B795F111F8CFFAF4B1
:102D7000BB0F11F460FF1BC06F5F7F4F8F4F9F4FE2
:102D800016C0882311F096E911C0772321F09EE840
:102D9000872F762F05C0662371F096E8862F70E0A6
:102DA00060E02AF09A95660F771F881FDAF7880F80
:102DB0009695879597F90895990F0008550FAA0BD6
:102DC000E0E8FEEF16161706E807F907C0F012163E
:102DD0001306E407F50798F0621B730B840B950B41
:102DE00039F40A2661F0232B242B252B21F4089596
:102DF0000A2609F4A140A6958FEF811D811D089533
:102E00000E9413170C9484170E94761738F00E94C2
:102E10007D1720F0952311F00C946D170C94731707
:102E200011240C94B8170E94951770F3959FC1F365
:102E3000950F50E0551F629FF001729FBB27F00D68
:102E4000B11D639FAA27F00DB11DAA1F649F6627BD
:102E5000B00DA11D661F829F2227B00DA11D621F0C
:102E6000739FB00DA11D621F839FA00D611D221FC6
:102E7000749F3327A00D611D231F849F600D211DAA
:102E8000822F762F6A2F11249F5750409AF0F1F02D
:102E900088234AF0EE0FFF1FBB1F661F771F881F96
:102EA00091505040A9F79E3F510580F00C946D174A
:102EB0000C94B8175F3FE4F3983ED4F3869577956A
:102EC0006795B795F795E7959F5FC1F7FE2B880F3C
:102ED000911D9695879597F9089597F99F6780E8D2
:102EE00070E060E008959FEF80EC089500240A945C
:102EF0001616170618060906089500240A941216D5
:102F00001306140605060895092E0394000C11F407
:102F1000882352F0BB0F40F4BF2B11F460FF04C0B4
:102F20006F5F7F4F8F4F9F4F089557FD9058440F0D
:102F3000551F59F05F3F71F04795880F97FB991F18
:102F400061F09F3F79F087950895121613061406D5
:102F5000551FF2CF4695F1DF08C016161706180662
:102F6000991FF1CF86957105610508940895E8943D
:102F7000BB2766277727CB0197F908950E94C917C9
:102F8000A59F900DB49F900DA49F800D911D1124BD
:102F90000895A29FB001B39FC001A39F700D811D32
:102FA0001124911DB29F700D811D1124911D089552
:102FB0005058BB27AA270E94F0170C9484170E9430
:102FC000761738F00E947D1720F039F49F3F19F4EE
:102FD00026F40C9473170EF4E095E7FB0C946D1730
:102FE000E92F0E94951758F3BA17620773078407F1
:102FF000950720F079F4A6F50C94B7170EF4E09538
:103000000B2EBA2FA02D0B01B90190010C01CA01A2
:10301000A0011124FF27591B99F0593F50F4503E4D
:1030200068F11A16F040A22F232F342F4427585F3F
:10303000F3CF469537952795A795F0405395C9F757
:103040007EF41F16BA0B620B730B840BBAF091500F
:10305000A1F0FF0FBB1F661F771F881FC2F70EC0AE
:10306000BA0F621F731F841F48F487957795679581
:10307000B795F7959E3F08F0B0CF9395880F08F06D
:103080009927EE0F9795879508950E94ED18E3957F
:103090000C9416190E945E180C9484170E947D17D8
:1030A00058F00E94761740F029F45F3F29F00C9405
:1030B0006D1751110C94B8170C9473170E94951743
:1030C00068F39923B1F3552391F3951B550BBB2757
:1030D000AA2762177307840738F09F5F5F4F220F9C
:1030E000331F441FAA1FA9F335D00E2E3AF0E0E893
:1030F00032D091505040E695001CCAF72BD0FE2FDD
:1031000029D0660F771F881FBB1F26173707480770
:10311000AB07B0E809F0BB0B802DBF01FF27935828
:103120005F4F3AF09E3F510578F00C946D170C9468
:10313000B8175F3FE4F3983ED4F38695779567958B
:10314000B795F7959F5FC9F7880F911D969587955D
:1031500097F90895E1E0660F771F881FBB1F62177C
:1031600073078407BA0720F0621B730B840BBA0B3A
:10317000EE1F88F7E09508950E949D1788F09F57ED
:1031800098F0B92F9927B751B0F0E1F0660F771F8B
:10319000881F991F1AF0BA95C9F714C0B13091F081
:1031A0000E94B717B1E008950C94B717672F782FD6
:1031B0008827B85F39F0B93FCCF386957795679546
:1031C000B395D9F73EF490958095709561957F4FB2
:1031D0008F4F9F4F08950C9473170E949D17D8F33B
:1031E000E894E0E0BB279F57F0F02AED3FE049EC80
:1031F00006C0EE0FBB0F661F771F881F28F0B23A7C
:1032000062077307840728F0B25A620B730B840BB2
:10321000E3959A9572F7803830F49A95BB0F661F44
:10322000771F881FD2F790480C943619EF93E0FF70
:1032300007C0A2EA2AED3FE049EC5FEB0E94F017DD
:103240000E9484170F90039401FC9058E4EEF0E084
:103250000C9442190E94DC1608F48FEF08950E9426
:10326000DC16880B990B08959F3F31F0915020F4A4
:10327000879577956795B795880F911D9695879552
:1032800097F908959F938F937F936F93FF93EF9395
:103290009B01AC010E940017EF91FF910E9456190B
:1032A0002F913F914F915F910C940017DF93CF9333
:1032B0001F930F93FF92EF92DF927B018C01689432
:1032C00006C0DA2EEF010E941317FE01E894A591C3
:1032D0002591359145915591A6F3EF010E94F01784
:1032E000FE019701A801DA9469F7DF90EF90FF9053
:1032F0000F911F91CF91DF910895A1E21A2EAA1B81
:10330000BB1BFD010DC0AA1FBB1FEE1FFF1FA21795
:10331000B307E407F50720F0A21BB30BE40BF50B92
:10332000661F771F881F991F1A9469F7609570951B
:10333000809590959B01AC01BD01CF010895EE0FE2
:10334000FF1F881F8BBF0790F691E02D19940F93F4
:103350001F93CF93DF938230910510F482E090E0C9
:10336000E0919B05F0919C0530E020E0B0E0A0E00A
:10337000309799F42115310509F44AC0281B390BFF
:1033800024303105D8F58A819B816115710589F159
:10339000FB0193838283FE0111C040815181028130
:1033A000138148175907E0F04817590799F4109707
:1033B00061F012960C93129713961C933296CF01DC
:1033C000DF91CF911F910F91089500939B0510936A
:1033D0009C05F4CF2115310551F04217530738F001
:1033E000A901DB019A01BD01DF01F801C1CFEF01A5
:1033F000F9CF90939C0580939B05CDCFFE01E20F02
:10340000F31F819391932250310939832883D7CFB9
:103410002091990530919A05232B41F420910802BF
:103420003091090230939A05209399052091060264
:10343000309107022115310541F42DB73EB7409177
:103440000A0250910B02241B350BE0919905F09173
:103450009A05E217F307A0F42E1B3F0B2817390734
:1034600078F0AC014E5F5F4F2417350748F04E0FE0
:103470005F1F50939A0540939905819391939FCF35
:10348000F0E0E0E09CCFCF93DF930097E9F0FC0100
:10349000329713821282A0919B05B0919C05ED0199
:1034A00030E020E01097A1F420813181820F931F3A
:1034B0002091990530919A052817390709F061C0C4
:1034C000F0939A05E0939905DF91CF910895EA0171
:1034D000CE17DF07E8F54A815B819E014115510552
:1034E000B1F7E901FB83EA8349915991C40FD51FD4
:1034F000EC17FD0761F4808191810296840F951F7E
:10350000E90199838883828193819B838A83F0E098
:10351000E0E012968D919C9113970097B9F52D914B
:103520003C911197CD010296820F931F209199052E
:1035300030919A052817390739F6309751F51092CE
:103540009C0510929B05B0939A05A0939905BCCF5A
:10355000D383C28340815181840F951FC817D90737
:1035600061F44E5F5F4F88819981480F591F5183E5
:1035700040838A819B81938382832115310509F0E1
:10358000B0CFF0939C05E0939B059ECFFD01DC013D
:10359000C0CF13821282D7CF4F925F926F927F92E9
:1035A0008F929F92AF92BF92CF92DF92EF92FF9253
:1035B0000F931F93CF93DF938C01009799F4CB0166
:1035C000DF91CF911F910F91FF90EF90DF90CF90FF
:1035D000BF90AF909F908F907F906F905F904F9033
:1035E0000C94A719FC01E60FF71F9C01225031092A
:1035F000E217F30708F4AEC0D901CD91DC91119721
:10360000C617D70720F1C530D10578F0CE01049751
:103610008617970750F0C61BD70B2297C193D193FB
:103620006D937C93CF010E94431AC801DF91CF9123
:103630001F910F91FF90EF90DF90CF90BF90AF90D0
:103640009F908F907F906F905F904F9008955B0157
:10365000AC1ABD0A4C018C0E9D1EA0919B05B09129
:103660009C05512C412CF12CE12C109731F58091C7
:10367000990590919A058815990509F05CC0461640
:10368000570608F058C080910602909107020097F3
:1036900041F48DB79EB740910A0250910B02841BF2
:1036A000950BE817F90708F055C0F0939A05E093D9
:1036B0009905F90171836083B8CF8D919C91119721
:1036C00012966C90129713967C901397A815B905D3
:1036D00059F56C0142E0C40ED11CCA14DB0420F180
:1036E000AC014A195B09DA011296159780F06282E3
:1036F000738251834083D9016D937C93E114F1046B
:1037000071F0D7011396FC93EE9312978ECF229609
:103710008C0F9D1FF90191838083F301EFCFF0930C
:103720009C05E0939B0581CF4816590608F42C01AF
:103730007D01D3019ACFCB010E94A7197C0100978C
:1037400049F0AE01B8010E94BA1BC8010E94431A99
:1037500087016BCF10E000E068CFFB01DC0104C003
:103760008D910190801921F441505040C8F7881B79
:10377000990B0895FB01DC0102C001900D924150AC
:103780005040D8F70895FC018191861721F08823D5
:10379000D9F7992708953197CF010895FB01DC01EE
:1037A00001900D920020E1F70895FB01DC014150EA
:1037B000504048F001900D920020C9F701C01D92C1
:1037C00041505040E0F70895F894FFCF0100FFFF0B
:1037D000FFFF00009D058000000000004202AC01D8
:1037E000D9018F020A02E801FC0100000000B80CB8
:1037F000AC01B20AC90C00000000200D030DF30C4F
:10380000CA0CD30C550E5F0E6E616E00696E6600B9
:103810006F7666003000446F6E6521000D0A00313E
:1038200030735F7761762E776176002F006F706559
:103830006E207468652066696C65202620676F209D
:0E384000746F2034347468206279746500005F
:10E000000D9489F10D94B2F10D94B2F10D94B2F129
:10E010000D94B2F10D94B2F10D94B2F10D94B2F1F0
:10E020000D94B2F10D94B2F10D94B2F10D94B2F1E0
:10E030000D94B2F10D94B2F10D94B2F10D94B2F1D0
:10E040000D94B2F10D94B2F10D94B2F10D94B2F1C0
:10E050000D94B2F10D94B2F10D94B2F10D94B2F1B0
:10E060000D94B2F10D94B2F10D94B2F10D94B2F1A0
:10E070000D94B2F10D94B2F10D94B2F10D94B2F190
:10E080000D94B2F10D94B2F10D94B2F10D94B2F180
:10E090000D94B2F10D94B2F10D94B2F10D94B2F170
:10E0A0000D94B2F10D94B2F10D94B2F10D94B2F160
:10E0B0000D94B2F10D94B2F10D94B2F10D94B2F150
:10E0C0000D94B2F10D94B2F10D94B2F10D94B2F140
:10E0D0000D94B2F10D94B2F10D94B2F10D94B2F130
:10E0E0000D94B2F141546D656761323536300041AF
:10E0F000726475696E6F206578706C6F72657220DE
:10E1000073746B3530305632206279204D4C530099
:10E11000426F6F746C6F616465723E004875683F52
:10E1200000436F6D70696C6564206F6E203D200048
:10E130004350552054797065202020203D20005FF9
:10E140005F4156525F415243485F5F3D2000415658
:10E1500052204C696243205665723D20004743437C
:10E160002056657273696F6E203D20004350552024
:10E1700049442020202020203D20004C6F7720663D
:10E18000757365202020203D20004869676820665F
:10E190007573652020203D200045787420667573D6
:10E1A00065202020203D20004C6F636B2066757336
:10E1B000652020203D20004D617220203720323024
:10E1C000313300312E362E3800342E332E350056A2
:10E1D00023202020414444522020206F7020636F70
:10E1E00064652020202020696E73747275637469E1
:10E1F0006F6E2061646472202020496E74657272B3
:10E20000757074006E6F20766563746F7200726A49
:10E210006D702020006A6D70200057686174207056
:10E220006F72743A00506F7274206E6F7420737541
:10E2300070706F72746564004D7573742062652030
:10E2400061206C6574746572002000577269747483
:10E25000696E672045450052656164696E672045B7
:10E26000450045452065727220636E743D00504F35
:10E27000525400303D5A65726F2061646472003FF1
:10E280003D43505520737461747300403D454550C3
:10E29000524F4D207465737400423D426C696E6B41
:10E2A000204C454400453D44756D70204545505215
:10E2B0004F4D00463D44756D7020464C415348001B
:10E2C000483D48656C70004C3D4C69737420492F83
:10E2D0004F20506F72747300513D51756974005234
:10E2E0003D44756D702052414D00563D73686F7707
:10E2F00020696E7465727275707420566563746FF0
:10E30000727300593D506F727420626C696E6B00BD
:10E310002A0011241FBECFEFD1E2DEBFCDBF01E046
:10E320000CBF12E0A0E0B2E0EEE1FDEF03E00BBFB6
:10E3300002C007900D92A030B107D9F712E0A0E01B
:10E34000B2E001C01D92AE30B107E1F70F9460F367
:10E350000D948DFE01E20EBF0FEF0DBF11241FBE05
:10E360000D9460F30D9400F020E030E040ED57E0B4
:10E3700005C0FA013197F1F72F5F3F4F2817390792
:10E38000C0F308959C01260F311DC901A0E0B0E043
:10E390002F5F3F4FABBFFC018791882361F08093D3
:10E3A000C6008091C00086FFFCCF8091C0008064D1
:10E3B0008093C000EACF08958DE08093C6008091DD
:10E3C000C00086FFFCCF8091C00080648093C000B5
:10E3D0008AE08093C6008091C00086FFFCCF8091C8
:10E3E000C00080648093C00008950F94C2F10F9420
:10E3F000DCF10895FC019081992359F09093C600B7
:10E400008091C00086FFFCCF8091C0008064809323
:10E41000C0003196992379F70895282F982F929567
:10E420009F70892F805D8A3308F0895F8093C600D2
:10E430008091C00086FFFCCF8091C00080648093F3
:10E44000C000822F8F70982F905D9A3308F0995FEB
:10E450009093C6008091C00086FFFCCF8091C000E1
:10E4600080648093C00008959C01FB01853691056E
:10E470001CF46330710594F0C90164E670E00F94F8
:10E480002EFE605D7F4F6093C6008091C00086FFC6
:10E49000FCCF8091C00080648093C0002B30310598
:10E4A00014F43297B4F0C90164E670E00F942EFEC4
:10E4B0006AE070E00F942EFE605D7F4F6093C600AF
:10E4C0008091C00086FFFCCF8091C0008064809363
:10E4D000C000C9016AE070E00F942EFEC0968093E0
:10E4E000C6008091C00086FFFCCF8091C000806490
:10E4F0008093C00008951F93182F8EE692EE60E07F
:10E500000F94C2F11093C6008091C00086FFFCCF2B
:10E510008091C00080648093C0000F94DCF11F9153
:10E5200008952F923F924F925F926F927F928F92B7
:10E530009F92AF92BF92CF92DF92EF92FF920F9392
:10E540001F93DF93CF93CDB7DEB762970FB6F894E2
:10E55000DEBF0FBECDBF382E622ECA01DB015C01CB
:10E560006D01772420E2222E2E010894411C511CBB
:10E570008BC081E0A81680E0B80681E0C80680E084
:10E58000D80628F0C601AA27BB270F940DF2BB2797
:10E59000AD2D9C2D8B2D0F940DF28A2D0F940DF225
:10E5A0002092C6008091C00086FFFCCF8091C00001
:10E5B00080648093C0009DE29093C6008091C0006B
:10E5C00086FFFCCF8091C00080648093C0002092C1
:10E5D000C6008091C00086FFFCCF8091C00080649F
:10E5E0008093C00019828601750188249924A1E0D6
:10E5F0003A1651F03A1620F0B2E03B1661F409C029
:10E600000BBFF701779007C0C7010F9477FE782EF4
:10E6100002C0F7017080872D0F940DF22092C60082
:10E620008091C00086FFFCCF8091C0008064809301
:10E63000C000872D8052F401EF70F0708F3520F408
:10E64000E40DF51D708204C0E40DF51D8EE280839B
:10E650000894E11CF11C011D111D0894811C911CE2
:10E6600090E18916910409F0C2CF80E190E0A0E02A
:10E67000B0E0A80EB91ECA1EDB1E198AC2010F9493
:10E68000FAF10F94DCF16A94662009F072CF629679
:10E690000FB6F894DEBF0FBECDBFCF91DF911F91B3
:10E6A0000F91FF90EF90DF90CF90BF90AF909F9031
:10E6B0008F907F906F905F904F903F902F90089534
:10E6C0002F923F924F925F926F927F928F929F9282
:10E6D000AF92BF92CF92DF92EF92FF920F931F9370
:10E6E000DF93CF93CDB7DEB7CD53D1400FB6F894BB
:10E6F000DEBF0FBECDBF01E20EBF0FEF0DBF94B75F
:10E70000F894A89514BE80916000886180936000A1
:10E7100010926000789493FF05C0E0910002F091A0
:10E7200001021995279A2F9A8091C00082608093E8
:10E73000C00080E18093C40088E18093C1000000A4
:10E74000EE24FF24870144E0A42EB12CCC24DD2448
:10E7500024C0C5010197F1F70894E11CF11C011DCB
:10E76000111D21E2E2162EE4F20620E0020720E06D
:10E77000120718F031E0C32ED12CC801B70127ECE5
:10E780003BE140E050E00F9441FE611571058105C9
:10E79000910519F485B1805885B98091C00087FD35
:10E7A00003C0C114D104A9F2A6014F5F5F4FC25E3E
:10E7B000DE4F59834883CE51D140C25EDE4F8881FF
:10E7C0009981CE51D140019711F00D9410FEC05D9A
:10E7D000DE4F19821882C053D14060E0C15DDE4F28
:10E7E0001882CF52D14088249924C35DDE4F19820C
:10E7F0001882CD52D140C05EDE4F188219821A8233
:10E800001B82C052D140CE5CDE4F188219821A8220
:10E810001B82C253D140EE24FF2487010BBFF701B6
:10E8200007911691C45CDE4F19830883CC53D14005
:10E830000D940BFEC25EDE4F28813981CE51D1404E
:10E840002130310509F52091C600C25EDE4F1982E4
:10E850001882CE51D14022C02F5F3F4F4F4F5F4FA4
:10E86000213082E138078AE7480780E0580780F0C6
:10E87000C45CDE4FE881F981CC53D140EF5FFF4F9C
:10E8800019F0EE27FF27099420E030E040E050E047
:10E890008091C00087FFE0CF2091C600C35DDE4FAE
:10E8A00048815981CD52D1404F5F5F4FC35DDE4FEC
:10E8B00059834883CD52D140213209F063C64A3092
:10E8C000510508F05FC60894811C911C53E0851621
:10E8D000910409F059C600E010E018C081E280936D
:10E8E000C6008091C00086FFFCCF8091C00080648C
:10E8F0008093C0002F5F3F4F2931310579F70F9486
:10E90000DCF10F5F1F4F0530110519F020E030E0FA
:10E91000E5CF10920A0210920B0210920C02109294
:10E920000D02109206021092070210920802109235
:10E930000902109202021092030210920402109235
:10E9400005028FEE90EE60E00F94F5F180E191EE1C
:10E9500060E00F94C2F18091C00087FFFCCF9091DE
:10E96000C600903608F09F759032B8F09093C600BC
:10E970008091C00086FFFCCF8091C00080648093AE
:10E98000C000A0E2A093C6008091C00086FFFCCF2B
:10E990008091C00080648093C000983409F4D7C18E
:10E9A0009934B8F4923409F459C1933458F490333B
:10E9B00019F1903308F4E3C59F33A1F1903409F0C5
:10E9C000DEC5BDC0953409F470C1963409F0D7C5D1
:10E9D00098C1923509F42BC2933538F49C3409F46C
:10E9E000F5C1913509F0CBC518C2963509F445C279
:10E9F000993509F0C4C567C483E792EE62E00F94CD
:10EA0000F5F110920602109207021092080210927D
:10EA1000090210920A0210920B0210920C0210923C
:10EA20000D0213C18FE792EE62E00F94F5F18FEEC5
:10EA300090EE60E00F94F5F181E291EE60E00F94CA
:10EA4000C2F187EB91EE60E00F94F5F180E391EE77
:10EA500060E00F94C2F184EE90EE60E00F94F5F167
:10EA60008FE391EE60E00F94C2F186E090E061E008
:10EA700070E00F9434F20F94DCF18DE591EE60E0DC
:10EA80000F94C2F189EC91EE60E00F94F5F18EE401
:10EA900091EE60E00F94C2F183EC91EE60E00F9490
:10EAA000F5F18CE691EE60E00F94C2F18EE10F94E7
:10EAB0000DF288E90F940DF281E00F940DF20F949E
:10EAC000DCF18BE791EE60E00F94C2F119E0E0E039
:10EAD000F0E010935700E4918E2F0F940DF20F94F5
:10EAE000DCF18AE891EE60E00F94C2F1E3E0F0E03F
:10EAF00010935700E4918E2F0F940DF20F94DCF1D8
:10EB000089E991EE60E00F94C2F1E2E0F0E0109349
:10EB10005700E4918E2F0F940DF20F94DCF188EAE8
:10EB200091EE60E00F94C2F1E1E0F0E01093570045
:10EB30001491812F0F940DF20F94DCF107CF8BE825
:10EB400092EE62E00F94F5F18BE492EE60E00F94A8
:10EB5000F5F10F94DCF100E010E019C0C8016F2D51
:10EB60000F947FFEFF2031F489E492EE60E00F9471
:10EB7000C2F10BC0F092C6008091C00086FFFCCFAE
:10EB80008091C00080648093C0000F5F1F4FC80158
:10EB900081519F41A0E0B0E0ABBFFC01F790BAE229
:10EBA000FB1621F0E2E000301E07C1F60F94DCF105
:10EBB0000F94DCF187E592EE60E00F94F5F10F948D
:10EBC000DCF1CC24DD2400E010E01EC0C8010F946D
:10EBD00077FEF82E882331F489E492EE60E00F94FA
:10EBE000C2F10BC08093C6008091C00086FFFCCFAD
:10EBF0008091C00080648093C000FE1419F00894D6
:10EC0000C11CD11C0F5F1F4FC80181519F41A0E063
:10EC1000B0E0ABBFFC01E790FAE2EF1621F022E092
:10EC20000030120799F60F94DCF10F94DCF182E6C4
:10EC300092EE60E00F94C2F1C60161E070E00F94C3
:10EC400034F20F94DCF10F94DCF110920202109276
:10EC50000302109204021092050278CE89E992EE26
:10EC600062E00F94F5F1279A2F9A16C02F9880E052
:10EC700090E0E0EDF7E03197F1F7019684369105E9
:10EC8000C1F72F9A80E090E0E0EDF7E03197F1F7DF
:10EC9000019684369105C1F78091C00087FFE6CFC9
:10ECA0008091C00087FFFCCF64C485EA92EE62E0E9
:10ECB0000F94F5F140910202509103026091040219
:10ECC0007091050281E020E10F9491F2809102029F
:10ECD00090910302A0910402B091050280509F4FD1
:10ECE000AF4FBF4F8093020290930302A0930402A0
:10ECF000B093050280509041A040B04008F426CE69
:10ED0000A4CF83EB92EE62E00F94F5F140910602FE
:10ED100050910702609108027091090280E020E1A1
:10ED20000F9491F28091060290910702A09108023F
:10ED3000B091090280509F4FAF4FBF4F80930602A2
:10ED400090930702A0930802B0930902FFCD80ECD4
:10ED500092EE62E00F94F5F183E792EE60E00F949B
:10ED6000F5F18FE792EE60E00F94F5F18BE892EE0B
:10ED700060E00F94F5F189E992EE60E00F94F5F10F
:10ED800085EA92EE60E00F94F5F183EB92EE60E09D
:10ED90000F94F5F180EC92EE60E00F94F5F187ECC2
:10EDA00092EE60E00F94F5F188ED92EE60E00F9442
:10EDB000F5F18FED92EE60E00F94F5F18AEE92EEB0
:10EDC00060E00F94F5F183E093EEBDCD87EC92EE19
:10EDD00062E00F94F5F181E40F947BF282E40F94EA
:10EDE0007BF283E40F947BF284E40F947BF285E45E
:10EDF0000F947BF286E40F947BF287E40F947BF20E
:10EE000088E40F947BF28AE40F947BF28BE40F94F6
:10EE10007BF28CE40F947BF299CD88ED92EE62E068
:10EE20000F94F5F1772473948824992409C48FED05
:10EE300092EE62E00F94F5F140910A0250910B02BC
:10EE400060910C0270910D0282E020E10F9491F22A
:10EE500080910A0290910B02A0910C02B0910D02D8
:10EE600080509F4FAF4FBF4F80930A0290930B0289
:10EE7000A0930C02B0930D0269CD8AEE92EE62E08F
:10EE80000F94F5F184EE90EE60E00F94F5F18FECC5
:10EE900091EE60E00F94F5F1662477244301CC5D98
:10EEA000DE4F19821882C452D140D401C301B695F5
:10EEB000A79597958795CA5DDE4F88839983AA8326
:10EEC000BB83C652D140CC5DDE4FA881B981C4520C
:10EED000D1401196CC5DDE4FB983A883C452D14096
:10EEE000CD0162E070E00F9434F2B0E2B093C6005E
:10EEF0008091C00086FFFCCF8091C0008064809329
:10EF0000C000EDE2E093C6008091C00086FFFCCF18
:10EF10008091C00080648093C000F0E2F093C6004E
:10EF20008091C00086FFFCCF8091C00080648093F8
:10EF3000C000CA5DDE4FE880F9800A811B81C6529D
:10EF4000D140BB27A12F902F8F2D0F940DF2CA5DBA
:10EF5000DE4F8881C652D1400F940DF2B0E2FB2EF5
:10EF6000F092C6008091C00086FFFCCF8091C00067
:10EF700080648093C0000DE30093C6008091C000C0
:10EF800086FFFCCF8091C00080648093C00010E2B7
:10EF90001093C6008091C00086FFFCCF8091C00016
:10EFA00080648093C0008BBEF3012791C65DDE4F65
:10EFB0002883CA52D140A22EBB24CC24DD2408943D
:10EFC000611C711C811C911C8BBEF3018791282E42
:10EFD0003324442455240894611C711C811C911C09
:10EFE0008BBEF3013791C55DDE4F3883CB52D140E4
:10EFF0000894611C711C811C911C8BBEF30147910C
:10F00000C45DDE4F4883CC52D140ADEFEA2EAFEF66
:10F01000FA2EAFEF0A2FAFEF1A2F6E0C7F1C801E57
:10F02000911E142D032DF22CEE24EA0CFB1C0C1D5A
:10F030001D1D0F940DF220E22093C6008091C000A8
:10F0400086FFFCCF8091C00080648093C000C65DC5
:10F05000DE4F8881CA52D1400F940DF230E23093D6
:10F06000C6008091C00086FFFCCF8091C000806404
:10F070008093C000C45DDE4F8881CC52D1400F9494
:10F080000DF240E24093C6008091C00086FFFCCFA5
:10F090008091C00080648093C000C55DDE4F888190
:10F0A000CB52D1400F940DF250E25093C6008091A4
:10F0B000C00086FFFCCF8091C00080648093C000B8
:10F0C0008FEFE8168FEFF80680E0080780E018075A
:10F0D00031F484E092EE60E00F94C2F1DFC0D80119
:10F0E000C7018070907CA070B0708050904CA040A0
:10F0F000B040D1F52FEF3FE340E050E0E222F322B1
:10F1000004231523CA5DDE4FA880B980CA80DB8046
:10F11000C652D140AE0CBF1CC01ED11EAA0CBB1CD7
:10F12000CC1CDD1C8EE092EE60E00F94C2F1BB2798
:10F13000A12F902F8F2D0F940DF28E2D0F940DF285
:10F1400030E23093C6008091C00086FFFCCF8091F2
:10F15000C00080648093C0004EE34093C60080915D
:10F16000C00086FFFCCF87C08EE09EEFA0E0B0E03D
:10F17000E822F9220A231B239CE0E91694E9F90608
:10F1800090E0090790E0190709F088C0C45DDE4FE0
:10F19000A881CC52D140EA2EFF2400E010E0102FCD
:10F1A0000F2DFE2CEE24C55DDE4FB881CB52D14031
:10F1B000EB0EF11C011D111DD601C501817090706F
:10F1C000A070B070DC0199278827E80EF91E0A1F8D
:10F1D0001B1F20EF30E040E050E0A222B322C42207
:10F1E000D52241E1AA0CBB1CCC1CDD1C4A95D1F7F1
:10F1F000EA0CFB1C0C1D1D1D81E090E0A0E0B0E0BE
:10F20000282239224A225B2235E1220C331C441C7D
:10F21000551C3A95D1F7E20CF31C041D151D57013E
:10F220006801AA0CBB1CCC1CDD1C85E192EE60E0E1
:10F230000F94C2F1C801AA27BB270F940DF2BB2778
:10F24000A12F902F8F2D0F940DF28E2D0F940DF274
:10F2500090E29093C6008091C00086FFFCCF809121
:10F26000C00080648093C000AEE3A093C60080918C
:10F27000C00086FFFCCF8091C00080648093C000F6
:10F28000C601AA27BB270F940DF2BB27AD2D9C2DDD
:10F290008B2D0F940DF28A2D0F940DF20F94DCF14B
:10F2A000CC5DDE4FE881F981C452D140F99709F471
:10F2B0004DCBF4E0EF2EF12C012D112D6E0C7F1CA7
:10F2C000801E911EF2CD83E093EE62E00F94F5F183
:10F2D0008AE192EE60E00F94C2F18091C00087FF56
:10F2E000FCCF1091C6001F751093C6008091C0001E
:10F2F00086FFFCCF8091C00080648093C0000F9493
:10F30000DCF1812F81548A3108F036C1163409F4BA
:10F3100095C0173490F4133409F44EC0143430F40B
:10F320001134F1F0123409F01DC130C0143409F465
:10F3300059C0153409F016C16BC01A3409F4C4C0A1
:10F340001B3438F4173409F48FC0183409F00AC19B
:10F35000A1C01B3409F4D2C01C3409F003C1E8C0B9
:10F360008FEF81B90DC082B1809582B980E090E0C5
:10F37000E0EDF7E03197F1F70196883C9105C1F790
:10F380008091C00087FFEFCF12B8EFC08FEF84B934
:10F390000DC085B1809585B980E090E0E0EDF7E0A3
:10F3A0003197F1F70196883C9105C1F78091C00033
:10F3B00087FFEFCF15B8D9C08FEF87B90DC088B1DF
:10F3C000809588B980E090E0E0EDF7E03197F1F7C3
:10F3D0000196883C9105C1F78091C00087FFEFCF6F
:10F3E00018B8C3C08FEF8AB90DC08BB180958BB9A7
:10F3F00080E090E0E0EDF7E03197F1F70196883C8E
:10F400009105C1F78091C00087FFEFCF1BB8ADC059
:10F410008FEF8DB90DC08EB180958EB980E090E0F0
:10F42000E0EDF7E03197F1F70196883C9105C1F7DF
:10F430008091C00087FFEFCF1EB897C08FEF80BBD1
:10F440000DC081B3809581BB80E090E0E0EDF7E0F6
:10F450003197F1F70196883C9105C1F78091C00082
:10F4600087FFEFCF11BA81C08FEF83BB0DC084B38C
:10F47000809584BB80E090E0E0EDF7E03197F1F714
:10F480000196883C9105C1F78091C00087FFEFCFBE
:10F4900014BA6BC08FEF809301010FC080910201FD
:10F4A00080958093020180E090E0E0EDF7E03197F5
:10F4B000F1F70196883C9105C1F78091C00087FF64
:10F4C000EDCF1092020151C08FEF809304010FC065
:10F4D0008091050180958093050180E090E0E0ED4A
:10F4E000F7E03197F1F70196883C9105C1F78091DB
:10F4F000C00087FFEDCF1092050137C08FEF8093DA
:10F5000007010FC08091080180958093080180E079
:10F5100090E0E0EDF7E03197F1F70196883C910536
:10F52000C1F78091C00087FFEDCF109208011DC088
:10F530008FEF80930A010FC080910B01809580931B
:10F540000B0180E090E0E0EDF7E03197F1F70196F4
:10F55000883C9105C1F78091C00087FFEDCF1092E4
:10F560000B0103C085E292EEEEC98091C00087FFD7
:10F57000FCCF8091C600EAC988E392EEE4C98CE131
:10F5800091EEE1C988249924933011F1943028F444
:10F59000913089F09230B8F408C0953061F195301F
:10F5A000F0F0963009F048C043C02B3109F042C951
:10F5B00091E06BE13FC96227C15DDE4F2883CF52E6
:10F5C000D14092E037C9B22FA0E0622793E032C960
:10F5D000822F90E0A82BB92B622794E02BC92E3004
:10F5E00009F039C3622795E0C05DDE4F19821882A9
:10F5F000C053D1401FC9E1E0F0E0EC0FFD1FC05D3A
:10F60000DE4F08811981C053D140E00FF11F2083E4
:10F610000F5F1F4FC05DDE4F19830883C053D14079
:10F6200062270A171B0709F005C9D80196E002C92D
:10F63000261709F010C303C0973009F0FBC87724E0
:10F640009981933109F412C19431C8F4963009F4C8
:10F65000D8C0973050F4923009F406C1933009F4C1
:10F660006DC0913009F059C253C0913109F477C08F
:10F67000923108F0BBC0903109F04FC2F5C098310B
:10F6800009F487C0993150F4953109F4EFC09531F0
:10F6900008F4C6C1963109F040C2C2C19A3109F4DA
:10F6A0006CC09A3108F491C09B3109F45BC09D3164
:10F6B00009F033C29D81903359F48F81882311F46E
:10F6C0009EE11CC0813011F091E018C098E916C08D
:10F6D000892F807591F0903539F4E0E0F0E089E011
:10F6E0008093570094910AC0983539F4E3E0F0E034
:10F6F00089E080935700949101C090E01A821B82A8
:10F700008D818C831D829E831F8227E030E009C299
:10F710001A8288E08B8381E48C8386E58D8382E581
:10F720008E8389E48F8383E5888780E589878FE5E9
:10F730008A8782E38B872BE030E0F3C18A818139AD
:10F7400041F0823941F0803911F48FE005C080E04A
:10F7500003C082E001C08AE01A828B8344C0772410
:10F76000739482C08D81882311F48EE12CC0813086
:10F7700011F081E028C088E926C01A82E1E0F0E0BB
:10F7800089E08093570084918B831C8224E030E0D1
:10F79000C8C18B81803589F48C81883039F4E2E0EE
:10F7A000F0E089E08093570084910DC0E0E0F0E044
:10F7B00089E080935700849106C0E3E0F0E089E09F
:10F7C0008093570084911A82DFCF8D81836C99E0FA
:10F7D000E1E0F0E0082E90935700E89507B600FCB2
:10F7E000FDCF1A821B8223E030E09BC180EC8A832C
:10F7F000CE5CDE4F188219821A821B82C253D1401E
:10F800008EC18A8190E0A0E0B0E0582F44273327D2
:10F8100022278B8190E0A0E0B0E0DC0199278827C7
:10F82000282B392B4A2B5B2B8D8190E0A0E0B0E098
:10F83000282B392B4A2B5B2B8C8190E0A0E0B0E089
:10F84000BA2FA92F982F8827282B392B4A2B5B2BCF
:10F85000220F331F441F551FC05EDE4F288339839C
:10F860004A835B83C052D1401A8259C13A81C95C34
:10F87000DE4F3883C753D140CA5CDE4F1882C6536F
:10F88000D1408B81C82EDD24CA5CDE4F488159816E
:10F89000C653D140C42AD52A933109F082C0CE5C28
:10F8A000DE4F88819981AA81BB81C253D1408050AB
:10F8B000904CA340B04030F583E0CE5CDE4FE88052
:10F8C000F9800A811B81C253D140F70100935B008C
:10F8D00080935700E89507B600FCFDCFCE5CDE4F65
:10F8E000088119812A813B81C253D14000501F4FAA
:10F8F0002F4F3F4FCE5CDE4F088319832A833B8313
:10F90000C253D140C05EDE4F488159816A817B81FC
:10F91000C052D140DE011B9631E08C9111962C91A2
:10F9200011971296C75CDE4F2883C953D140C85C3B
:10F93000DE4F1882C853D14090E0C85CDE4FE881AA
:10F94000F981C853D1408E2B9F2B0C01FA01609393
:10F950005B0030935700E89511244E5F5F4F6F4F67
:10F960007F4F0EEFE02E0FEFF02ECE0CDF1CC114F8
:10F97000D10499F685E0C05EDE4F088119812A81A5
:10F980003B81C052D140F80120935B008093570027
:10F99000E89507B600FCFDCF81E180935700E8951C
:10F9A00035C0C05EDE4F88819981AA81BB81C0527B
:10F9B000D140B695A795979587957C018601ABE0D8
:10F9C000AA2EB12CAC0EBD1E0BC0D5016D915D01F0
:10F9D000C7010F947FFE0894E11CF11C01501040F8
:10F9E0000115110591F7A60160E070E0440F551F65
:10F9F000661F771FC05EDE4FE880F9800A811B8199
:10FA0000C052D1404E0D5F1D601F711F1A82C05E33
:10FA1000DE4F488359836A837B83C052D1407FC0C5
:10FA2000FA80C55CDE4FF882CB53D140C65CDE4F16
:10FA30001882CA53D1408B81C82EDD24C65CDE4FAC
:10FA400008811981CA53D140C02AD12A1A828981DA
:10FA5000BE016D5F7F4F843121F59601C05EDE4FA0
:10FA6000E880F9800A811B81C052D1400BBFF701A9
:10FA700087919691DB018C9311969C936E5F7F4FDB
:10FA8000D801C7010296A11DB11DC05EDE4F88835B
:10FA90009983AA83BB83C052D14022503040F1F6F3
:10FAA00036C0C05EDE4F288139814A815B81C052F9
:10FAB000D1400894C108D108760100E010E0089414
:10FAC000C11CD11C0894E11CF11C011D111DE20E8A
:10FAD000F31E041F151F21BDBB27A52F942F832FB5
:10FAE00082BD2F5F3F4F4F4F5F4FF89A80B5DB01CC
:10FAF0008D93BD012E153F054007510761F7C05E8C
:10FB0000DE4F288339834A835B83C052D1409601FC
:10FB10002D5F3F4FFB01108204C080EC8A8322E0FE
:10FB200030E08BE18093C6008091C00086FFFCCF5F
:10FB30008091C00080648093C000C15DDE4FF88179
:10FB4000CF52D140F093C6008091C00086FFFCCF19
:10FB50008091C00080648093C000432F3093C60022
:10FB60008091C00086FFFCCF8091C00080648093AC
:10FB7000C000922F2093C6008091C00086FFFCCF6A
:10FB80008091C00080648093C0008EE08093C600A6
:10FB90008091C00086FFFCCF8091C000806480937C
:10FBA000C00065E1C15DDE4FE880CF52D1406E25D7
:10FBB00069276427FE01319610C090819093C6009A
:10FBC0008091C00086FFFCCF31968091C000806498
:10FBD0008093C0006927215030402115310569F715
:10FBE0006093C6008091C00086FFFCCF8091C0006A
:10FBF00080648093C00085B1805885B9772081F4F6
:10FC0000C15DDE4F0881CF52D1400F5FC15DDE4F35
:10FC10000883CF52D14090E0A0E0B0E00D941AF4F8
:10FC200027982F9880E090E020ED37E0F901319798
:10FC3000F1F7019684369105C9F700008091C00064
:10FC40008D7F8093C00081E180935700E895EE2777
:10FC5000FF270994FFCF90E00D941AF497FB092E2B
:10FC600007260AD077FD04D02ED006D000201AF443
:10FC7000709561957F4F0895F6F7909581959F4F08
:10FC80000895A1E21A2EAA1BBB1BFD010DC0AA1FDD
:10FC9000BB1FEE1FFF1FA217B307E407F50720F0F5
:10FCA000A21BB30BE40BF50B661F771F881F991F70
:10FCB0001A9469F760957095809590959B01AC01B9
:10FCC000BD01CF010895AA1BBB1B51E107C0AA1FAC
:10FCD000BB1FA617B70710F0A61BB70B881F991FED
:10FCE0005A95A9F780959095BC01CD010895F99991
:10FCF000FECF92BD81BDF89A992780B50895262F31
:10FD0000F999FECF1FBA92BD81BD20BD0FB6F89400
:0EFD1000FA9AF99A0FBE01960895F894FFCF63
:00000001FF
