:100000000C9462000C948A000C948A000C948A0070
:100010000C948A000C948A000C948A000C948A0038
:100020000C948A000C948A000C948A000C948A0028
:100030000C948A000C948A000C948A000C948A0018
:100040000C947C030C948A000C948A000C948A0013
:100050000C948A000C948A000C948A000C948A00F8
:100060000C948A000C948A000000000024002700F1
:100070002A0000000000250028002B0000000000DE
:1000800023002600290004040404040404040202DA
:100090000202020203030303030301020408102007
:1000A0004080010204081020010204081020000012
:1000B0000008000201000003040700000000000027
:1000C0000000CA0511241FBECFEFD8E0DEBFCDBFB0
:1000D00011E0A0E0B1E0E2E9FCE002C005900D9281
:1000E000AE35B107D9F721E0AEE5B1E001C01D9210
:1000F000AE3EB207E1F710E0C2E6D0E004C02197BF
:10010000FE010E944106C136D107C9F70E94C6030D
:100110000C9447060C94000096E0899FD0011124AE
:10012000A959BE4F90967C936E935F9791E09196FC
:100130009C939197E091D401F091D5019091D301D6
:10014000992339F0309751F0811108C080918301D3
:100150000994309719F05C968C91FACF0895CF925C
:10016000DF92EF92FF920F931F9396E0899FF00129
:100170001124E959FE4F11A2278D30A121303105FC
:1001800051F178F02230310509F451C023303105A6
:1001900009F452C01F910F91FF90EF90DF90CF9024
:1001A00008956623B9F361E070E00E948C002FB7D8
:1001B000F8948091630190916401A0916501B091E0
:1001C00066012FBF8093BF019093C001A093C1012E
:1001D000B093C201DFCF9FB7F894C0906301D09075
:1001E0006401E0906501F09066019FBF0091BF013E
:1001F0001091C0012091C1013091C201C01AD10AF1
:10020000E20AF30A0091D1011091D20130E020E01E
:100210000C151D052E053F0550F462E070E01F919E
:100220000F91FF90EF90DF90CF900C948C006111B4
:10023000B1CF63E070E0F3CF70E060E0F0CFAF9259
:10024000BF92CF92DF92EF92FF920F931F93CF93C3
:10025000DF936C017B018B01040F151FEB015E0125
:10026000AE18BF08C017D10759F06991D601ED91BA
:10027000FC910190F081E02DC6010995892B79F759
:10028000C501DF91CF911F910F91FF90EF90DF900B
:10029000CF90BF90AF900895833081F028F48130E3
:1002A00099F08230A9F008958730A9F08830C9F01C
:1002B0008430B1F4809180008F7D03C080918000F4
:1002C0008F7780938000089584B58F7784BD0895DB
:1002D00084B58F7DFBCF8091B0008F778093B00085
:1002E00008958091B0008F7DF9CFCF93DF93282FB1
:1002F00030E0F901E255FF4F8491F901E656FF4FD6
:10030000D491F901EA57FF4FC491CC23A1F0811198
:100310000E944C01EC2FF0E0EE0FFF1FE458FF4F5E
:10032000A591B491EC91ED2381E090E009F480E097
:10033000DF91CF91089580E090E0FACF862F0C9462
:1003400075011F93CF93DF93282F30E0F901E25519
:10035000FF4F8491F901E656FF4FD491F901EA5716
:10036000FF4FC491CC23A9F0162F81110E944C019C
:10037000EC2FF0E0EE0FFF1FEE58FF4FA591B49168
:100380008FB7F894EC91111108C0D095DE23DC935F
:100390008FBFDF91CF911F910895DE2BF8CF862F6D
:1003A000642F0C94A101CF93DF9390E0FC01E656FB
:1003B000FF4F24918A579F4FFC0184918823C9F0F5
:1003C00090E0880F991FFC01E859FF4FA591B49167
:1003D000FC01EE58FF4FC591D49161110DC09FB73C
:1003E000F8948C91209582238C93888128232883EC
:1003F0009FBFDF91CF910895623051F49FB7F89479
:100400003C91822F809583238C93E8812E2BEFCF14
:100410008FB7F894EC912E2B2C938FBFEACF862FB9
:10042000642F0C94D301089590E080E00895FC01BE
:1004300001900020E9F73197AF01481B590BBC012F
:1004400086ED91E00C941F01CF93DF93EC0160E007
:100450008E810E94A10161E08E810E94A10160E075
:100460008E810E94A1018BE891E00197F1F7DF9165
:10047000CF910895CF92DF92EF92FF920F931F9347
:10048000CF93DF936C017C0187E0E80EF11CD0E094
:10049000C0E0062F10E0B8010C2E02C075956795DC
:1004A0000A94E2F76170F70181917F010E94A10136
:1004B0002196C430D10579F7C601DF91CF911F9104
:1004C0000F91FF90EF90DF90CF900C942402CF9289
:1004D000DF92EF92FF920F931F93CF93DF93EC0184
:1004E000F62E642F8C810E94A1018D818F3F19F01F
:1004F00060E00E94A1010F2D10E08F8584FF25C0D0
:100500006E0187E0C80ED11CF12CE12CB8010E2C35
:1005100002C0759567950A94E2F76170F6018191C2
:100520006F010E94A101FFEFEF1AFF0A88E0E816B1
:10053000F10461F7CE01DF91CF911F910F91FF90F0
:10054000EF90DF90CF900C942402B80184E0759571
:1005500067958A95E1F7CE010E943A026F2DCE0190
:10056000DF91CF911F910F91FF90EF90DF90CF908F
:100570000C943A0240E0682F86ED91E00C946702FB
:1005800081E00E94BA028BE39FE10197F1F70895A1
:10059000CF93DF93823029F49091E5019860909396
:1005A000E5018093E9011092EA0180E48093EB0178
:1005B00080E18093EC0180E58093ED0161E0809122
:1005C000DA010E94D3018091DB018F3F19F061E0D5
:1005D0000E94D30161E08091DC010E94D301C6ED4D
:1005E000D1E09E01265D31408091E50184FD0BC084
:1005F00084E090E021962817390744F461E08E8169
:100600000E94D301EECF88E090E0F4CF8BE39DE031
:100610000197F1F760E08091DA010E94A10160E0AA
:100620008091DC010E94A1018091DB018F3F19F0D4
:1006300060E00E94A1018091E50184FD34C063E087
:1006400086ED91E00E943A02CBE4D6E4CE01019718
:10065000F1F763E086ED91E00E943A022197F1F70D
:1006600063E086ED91E00E943A0283E592E0019713
:10067000F1F762E086ED91E00E943A028091E50197
:1006800080620E94BA0284E08093E6018CE00E94BE
:10069000BA020E94C00282E08093E70186E0DF9107
:1006A000CF910C94BA0280620E94BA028BE496E465
:1006B0000197F1F78091E50180620E94BA0283E51B
:1006C00092E00197F1F78091E50180620E94BA0201
:1006D000D5CFE1E08091E9018111E0E0E195F0E022
:1006E000EA52FE4F848980680C94BA0241E00E946D
:1006F000670281E090E008951F920F920FB60F926B
:1007000011242F933F938F939F93AF93BF93809127
:10071000630190916401A0916501B09166013091EF
:10072000620123E0230F2D3758F50196A11DB11D5D
:10073000209362018093630190936401A09365010B
:10074000B093660180915E0190915F01A09160017C
:10075000B09161010196A11DB11D80935E0190933E
:100760005F01A0936001B0936101BF91AF919F9130
:100770008F913F912F910F900FBE0F901F90189562
:1007800026E8230F0296A11DB11DD2CF789484B51F
:10079000826084BD84B5816084BD85B5826085BD7D
:1007A00085B5816085BD80916E00816080936E000B
:1007B00010928100809181008260809381008091FD
:1007C00081008160809381008091800081608093AE
:1007D00080008091B10084608093B1008091B0006E
:1007E00081608093B00080917A00846080937A0069
:1007F00080917A00826080937A0080917A00816093
:1008000080937A0080917A00806880937A001092B9
:10081000C10082E00E94C80289E291E00E941702B2
:10082000812C912C5401839444244A94542C50E0FC
:10083000652E50E0752E51E05093D3018FB7F89498
:10084000409163015091640160916501709166016E
:100850008FBF8091C3019091C401A091C501B09157
:10086000C601481B590B6A0B7B0B8091CF019091FD
:10087000D001B0E0A0E084179507A607B70708F0FD
:1008800018C1C0E08091CD01C81760F4E091C901A2
:10089000F091CA01EC0FF11D62E080810E94D3014A
:1008A000CF5FF0CF312C8091CE01381608F05FC0B9
:1008B000032D10E0E091CB01F091CC01E00FF11F8E
:1008C00061E080810E94D301E091CB01F091CC01E5
:1008D000E00FF11F60E080810E94A101D501C401F9
:1008E000032C04C0880F991FAA1FBB1F0A94D2F7BC
:1008F0006C017C01E094F094212C8091CD012816AC
:10090000F8F4C22DD0E0E091C901F091CA01EC0FDA
:10091000FD1F80810E9475012496CC0FDD1FC959EF
:10092000DE4F892B41F4888199818C299D299983F7
:1009300088832394E2CF888199818E219F21F7CFEC
:10094000E091CB01F091CC01E00FF11F61E08081DB
:100950000E94A1018091CB019091CC01080F191F39
:1009600060E0F80180810E94D30133949CCF07E6B8
:1009700011E0E8018F8D98A1892B21F41C8E5E8EE9
:100980004D8E19A2269683EA91E08C179D0791F768
:10099000D12C8091CD01D81608F053C0C12CED2C7C
:1009A000F12CEE0CFF1CF701E159FE4F7F01209165
:1009B000CE01C21608F043C0F701608171810C2C92
:1009C00002C0769567950A94E2F7D29E90011124B1
:1009D0002C0D311DE7E6F1E080E0458D568D2417A2
:1009E000350709F4D5C08F5F36968A30B1F760FFBE
:1009F00024C0E7E6F1E090E080E0448D411118C0AA
:100A0000E091C701F091C801E20FF31F408156E069
:100A1000589FF001599FF00D1124E959FE4F448F62
:100A2000368F258F10A2178E61E00E94AF0005C09F
:100A3000019636968A30910501F7C394B8CFD394C6
:100A4000A8CF80E0F80191A19111892F0A5F1F4F73
:100A50000C171D07B9F79FB7F894409163015091A7
:100A6000640160916501709166019FBF4093C3016D
:100A70005093C4016093C5017093C6018823C9F0E7
:100A8000809188018823A9F0809186019091870147
:100A9000019779F4C09183010E946903C133A1F0E9
:100AA000C233D9F40E9469030E94C00285E391E039
:100AB00011C01092D3010E9469036114710409F4FA
:100AC000BACE0E940000B7CE0E9469030E94C00205
:100AD00081E391E00E941702F0CFC33339F40E9402
:100AE00069030E94C00287E391E0F4CFC43339F474
:100AF0000E9469030E94C0028DE391E0EBCFC533F1
:100B000039F40E9469030E94C0028FE391E0E2CFB2
:100B1000C63339F40E9469030E94C00281E491E067
:100B2000D9CFC73339F40E9469030E94C00283E41D
:100B300091E0D0CFC83339F40E9469030E94C0020B
:100B400085E491E0C7CFC93339F40E9469030E945C
:100B5000C00287E491E0BECFC03339F40E9469033C
:100B60000E94C00289E491E0B5CFCA3239F40E94F4
:100B700069030E94C0028BE491E0ACCFC33209F05C
:100B80009CCF0E9469030E94C00289E591E0A2CF38
:100B900061704BCF1092690110926D0110926C013F
:100BA00010926E0183E291E0909368018093670157
:100BB000E3E8F1E01082148213821582369681E018
:100BC000EF3BF807B9F783E091E09093CA01809377
:100BD000C90180E091E09093CC018093CB0184E047
:100BE0008093CD0183E08093CE0187E091E09093E4
:100BF000C8018093C7018AE090E09093D001809370
:100C0000CF0184EF91E09093D2018093D1011092B3
:100C1000D5011092D4011092C3011092C401109218
:100C2000C5011092C6011092D3011092D901109201
:100C3000D80187E191E09093D7018093D6018EE0AF
:100C40008093DA018FEF8093DB018FE08093DC01EA
:100C500080E18093DD0181E18093DE0182E1809378
:100C6000DF0183E18093E0011092E1011092E20143
:100C70001092E3011092E4011092E50181E00C94DE
:100C8000C802EE0FFF1F0590F491E02D0994F8942F
:020C9000FFCF94
:100C92000506070102030431323334353637383959
:100CA2002A30230000000076031F01140213020001
:100CB2000000000F02CF019E0157656C636F6D65E6
:100CC200004F4E450032005448524545003400352D
:100CD20000360037003800390030004152452059B3
:0E0CE2004F55204F4B41593F004259450000ED
:00000001FF
