:100000000C9465000C948D000C948D000C948D0064
:100010000C948D000C948D000C948D000C948D002C
:100020000C948D000C948D000C9424100C948D0075
:100030000C948D000C94A70F0C948D000C948D00E3
:100040000C945D0F0C948D000C942B0F0C94050FE9
:100050000C948D000C948D000C948D000C948D00EC
:100060000C948D000C948D0000000008000201002B
:100070000003040700000000000000000000000072
:10008000250028002B0000000000240027002A0083
:10009000040404040404040402020202020203032E
:1000A0000303030301020408102040800102040836
:1000B00010200102040810207C3C3E5E2B3D3F2FA7
:1000C0005B5D3B2C2A225C00A01011241FBECFEFE9
:1000D000D8E0DEBFCDBF11E0A0E0B1E0E6E0FDE298
:1000E00002C005900D92A635B107D9F725E0A6E527
:1000F000B1E001C01D92A230B207E1F710E0C5E601
:10010000D0E004C02197FE010E942B15C436D10710
:10011000C9F70E94F7100C9481160C94000090E02F
:10012000FC01EC55FF4F249180579F4FFC018491B7
:10013000882399F090E0880F991FFC01EA57FF4F40
:10014000A591B491FC01E458FF4F859194918FB72C
:10015000F894EC91E22BEC938FBF0895AF92BF928D
:10016000CF92DF92EF92FF920F931F93CF93DF9383
:100170006C017B018B01040F151FEB015E01AE18B2
:10018000BF08C017D10759F06991D601ED91FC91D4
:100190000190F081E02DC6010995892B79F7C50101
:1001A000DF91CF911F910F91FF90EF90DF90CF9053
:1001B000BF90AF900895FC01538D448D252F30E002
:1001C000842F90E0821B930B541710F0CF96089564
:1001D00001970895FC01918D828D981761F0A28D91
:1001E000AE0FBF2FB11D5D968C91928D9F5F9F7357
:1001F000928F90E008958FEF9FEF0895FC01918D0D
:10020000828D981731F0828DE80FF11D858D90E079
:1002100008958FEF9FEF0895FC01918D228D892F16
:1002200090E0805C9F4F821B91098F7399270895FE
:100230008BEF93E00E940C0121E0892B09F420E070
:10024000822F089580E090E0892B29F00E94180108
:1002500081110C9400000895FC01A48DA80FB92F02
:10026000B11DA35ABF4F2C91848D90E001968F73DE
:100270009927848FA689B7892C93A089B1898C91FD
:10028000837080648C93938D848D981306C002884C
:10029000F389E02D80818F7D80830895EF92FF9216
:1002A0000F931F93CF93DF93EC0181E0888F9B8D99
:1002B0008C8D98131AC0E889F989808185FF15C053
:1002C0009FB7F894EE89FF896083E889F989808176
:1002D0008370806480839FBF81E090E0DF91CF9145
:1002E0001F910F91FF90EF900895F62E0B8D10E067
:1002F0000F5F1F4F0F731127E02E8C8D8E110CC0D6
:100300000FB607FCFACFE889F989808185FFF5CF20
:10031000CE010E942C01F1CFEB8DEC0FFD2FF11DD2
:10032000E35AFF4FF0829FB7F8940B8FEA89FB895D
:1003300080818062CFCFCF93DF93EC01888D8823BB
:10034000B9F0AA89BB89E889F9898C9185FD03C038
:10035000808186FD0DC00FB607FCF7CF8C9185FF1D
:10036000F2CF808185FFEDCFCE010E942C01E9CF35
:10037000DF91CF91089590E0FC01E859FF4F24915F
:10038000FC01EC55FF4F3491FC01E057FF4FE49125
:10039000EE23C9F0222339F0233001F1A8F42130F3
:1003A00019F1223029F1F0E0EE0FFF1FE458FF4F62
:1003B000A591B4918FB7F894EC91611126C0309556
:1003C0003E233C938FBF08952730A9F02830C9F011
:1003D000243049F7809180008F7D03C08091800098
:1003E0008F7780938000DFCF84B58F7784BDDBCF9C
:1003F00084B58F7DFBCF8091B0008F778093B00064
:10040000D2CF8091B0008F7DF9CF3E2BDACF2FB7BE
:10041000F8946091640170916501809166019091FA
:1004200067012FBF08958FB7F894809158018FBF4F
:10043000089561E0FC0184810E94BB018091570115
:1004400081111092570108958EBD00000DB407FE72
:10045000FDCF8EB508958FEF0C9424020F931F9358
:10046000CF93DF93EC010E9407028B010E942B02C5
:100470008F3F69F00E940702601B710B6C177D07AC
:10048000A8F380E0DF91CF911F910F91089581E053
:10049000F9CF8CBD9DBD0895CF93DF93EC01809182
:1004A0005701811109C081E0809357018091B30405
:1004B0009091B4040E94490260E08C81DF91CF9159
:1004C0000C94BB018F929F92AF92BF92FF920F93B9
:1004D0001F93CF93DF93EC01F62E49015A018E81D1
:1004E000882389F08F8198859C012F5F3F4F388743
:1004F0002F838230924018F40E942B02F3CFCE015A
:100500000E9419021E82CE010E944C028CE291E0F0
:100510000E942E028F2D80640E94240208E110E0C8
:10052000D501C401002E04C0B695A795979587956F
:100530000A94D2F70E94240208501109083F8FEF55
:10054000180771F785E9FF2021F028E087E8F2120B
:100550008FEF0E94240210E00E942B028A8787FFFF
:1005600004C01F3F11F01F5FF7CFDF91CF911F91A4
:100570000F91FF90BF90AF909F908F900895AF9292
:10058000BF92CF92DF92EF92FF920F931F93CF9380
:10059000DF93EC016901C801820F931F8130924003
:1005A00050F58E81882379F088819981AA81BB8159
:1005B00084179507A607B70731F48F819885C81669
:1005C000D90608F042C0488359836A837B838B85B0
:1005D000833039F089E0440F551F661F771F8A95D5
:1005E000D1F79A01AB0161E1CE010E94620288233A
:1005F00089F083E08D83CE010E94190280E0DF91B3
:10060000CF911F910F91FF90EF90DF90CF90BF900F
:10061000AF9008950E9407025B010E942B028A8717
:100620008F3F69F40E9407026A197B096D3271409D
:10063000A0F38FE08D83CE010E941902DCCF8E3FA4
:1006400089F418861F8281E08E838F8198858C15AE
:100650009D0550F40E942B028F8198850196988702
:100660008F83F3CF8DE0E6CF6701E00EF11E0E948D
:100670002B02F60181936F01EE15FF05C1F78F8103
:100680009885080F191F18870F838985882319F00B
:1006900001151240A0F08E81882389F08F81988502
:1006A0009C012F5F3F4F38872F838230924018F490
:1006B0000E942B02F3CFCE010E9419021E8281E01C
:1006C0009ECFCF92DF92EF92FF920F93CF93DF9363
:1006D000EC01690182E1411551056105710599F04F
:1006E0008B85833039F089E0440F551F661F771FD3
:1006F0008A95D1F79A01AB0168E1CE010E946202AE
:10070000882319F084E08D832DC08EEF0E9424028F
:1007100076018EEFD81AF70181917F010E942402A1
:10072000EC14FD04C1F78FEF0E9424028FEF0E94AA
:1007300024020E942B028A878F71853071F4011187
:1007400016C0CE010E94190281E0DF91CF910F9176
:10075000FF90EF90DF90CF90089581E18D83CE01DF
:100760000E941902CE010E94190280E0EECF88E5B6
:1007700092E00E942E02811102C085E1C4CF20E0E8
:1007800030E0A9016DE0CE010E946202882311F0E1
:1007900084E1B9CF0E942B028111FACFD2CF0F93FF
:1007A0004091590150915A0160915B0170915C0137
:1007B000411551056105710599F0082F2BEF31E0C6
:1007C0008091F8019091F9010E946103882349F01A
:1007D0001092590110925A0110925B0110925C0123
:1007E00081E00F9108950F93CF93C82F8091FA0164
:1007F000811105C0C1E08C2FCF910F9108954091D8
:1008000003015091040160910501709106010C2FC4
:100810002BEF31E08091F8019091F9010E94610382
:10082000811102C0C0E0E7CFCC2321F381E00E9418
:10083000CF038823B9F31092FA01DDCF8F929F92F4
:10084000AF92BF92EF92FF920F931F93CF934B0102
:100850005C01C42F8091030190910401A0910501D6
:10086000B091060188159905AA05BB0551F181E0F3
:100870000E94F30381110BC080E0CF911F910F9173
:10088000FF90EF90BF90AF909F908F9008958BEF67
:10089000E82E81E0F82E00E012E030E020E0B50123
:1008A000A4018091F8019091F9010E94BF02882370
:1008B00019F38092030190920401A0920501B09275
:1008C00006014091FA014C2B4093FA0181E0D5CF0B
:1008D0008F929F92AF92BF92CF92DF92EF92FF9250
:1008E000CF9325EB34E03093F9012093F80188236E
:1008F00009F46DC040E060E070E0CB010E941E048E
:1009000081110BC080E0CF91FF90EF90DF90CF90EE
:10091000BF90AF909F908F9008958091B9038F778B
:1009200089F78091C5039091C603A091C703B09148
:10093000C80384369105A105B10520F3C090C10319
:10094000D090C203E090C303F090C403C114D1045B
:10095000E104F104B9F240E0C701B6010E941E04AF
:10096000882381F2809106029091070281159240BE
:1009700049F6A0910B02AA2329F260910902709115
:100980000A026115710509F4BDCF209108022223E6
:1009900009F4B8CFA093D3042093C50490E080E07D
:1009A00030E0E1E0F0E0C82FAF01082E02C0440FB4
:1009B000551F0A94E2F72417350769F041E0480F04
:1009C00001968930910579F74093CE049BCFC12CD5
:1009D000D12C7601C0CF8093CE04209111023091AA
:1009E000120250E040E02115310541F420911F0230
:1009F0003091200240912102509122022093C6049E
:100A00003093C7044093C8045093C904460157016A
:100A1000860E971EA11CB11C8092D4049092D5041E
:100A2000A092D604B092D704E0910C02F0910D028E
:100A3000F093DA04E093D904B0E00E94FE14DC01E4
:100A4000CB01880D991DAA1DBB1D8093DB049093DB
:100A5000DC04A093DD04B093DE0425E0EE0FFF1F5D
:100A60002A95E1F7E150FE4FEF2FFF27E6958E0F15
:100A70009F1FA11DB11D8093CF049093D004A0931C
:100A8000D104B093D20480900E0290900F02B12C4A
:100A9000A12C8114910441F480901B0290901C02BF
:100AA000A0901D02B0901E02C81AD90AEA0AFB0AD9
:100AB000C80CD91CEA1CFB1C04C0F694E794D7941C
:100AC000C794CA95D2F7C092CA04D092CB04E092E0
:100AD000CC04F092CD0485EFC8168FE0D806E1046F
:100AE000F10428F48CE08093D80481E00CCF80E1FD
:100AF00025EFC2162FEFD206E104F104A0F3809196
:100B0000270290912802A0912902B0912A02809395
:100B1000DB049093DC04A093DD04B093DE0480E258
:100B2000E2CF4F925F926F927F928F929F92AF929D
:100B3000BF92CF92DF92EF92FF920F931F93CF93CA
:100B4000DF93EC01423051056105710590F480E0BE
:100B5000DF91CF911F910F91FF90EF90DF90CF9099
:100B6000BF90AF909F908F907F906F905F904F90CD
:100B7000089589859A85AB85BC850196A11DB11D17
:100B800084179507A607B70710F3CB88DC88ED8894
:100B9000FE888F89803109F042C0BB27A72F962F8E
:100BA000852F480159012A013B01C80ED91EEA1EB2
:100BB000FB1E8091030190910401A0910501B09169
:100BC0000601C816D906EA06FB0699F58F89803119
:100BD000C1F5B301A201552766277727440F551F9A
:100BE00045505E4FFA01918280828091FA018160C6
:100BF0008093FA018A89823080F08D819E81AF8155
:100C0000B8858C0D9D1DAE1DBF1D8093590190931D
:100C10005A01A0935B01B0935C0181E099CFDB01A5
:100C2000CA01E7E0B695A79597958795EA95D1F71C
:100C3000B8CF40E0C701B6010E941E048111C6CFA3
:100C400086CFB301A2014F77552766277727440F38
:100C5000551F440F551F45505E4FFA018082918207
:100C6000A282B382C2CF8F929F92AF92BF92CF9255
:100C7000DF92EF92FF920F931F93CF93DF93FC01CC
:100C800081859285A385B4850196A11DB11D841728
:100C90009507A607B70770F480E0DF91CF911F9109
:100CA0000F91FF90EF90DF90CF90BF90AF909F900B
:100CB0008F90089583889488A588B6888789803125
:100CC00089F5BB27A72F962F852FE9016A017B01A4
:100CD0008F01BC01CD01680D791D8A1D9B1D80907F
:100CE000030190900401A0900501B09006018616C2
:100CF0009706A806B90601F5F8018789803111F534
:100D0000DD24EE24FF24F601EE0FFF1FE550FE4F19
:100D100080819181B0E0A0E088839983AA83BB831E
:100D200081E0BBCFDB01CA01C7E0B695A7959795D7
:100D30008795CA95D1F7C9CF40E00E941E04811162
:100D4000DBCFAACFE894C7F8DD24EE24FF24F60118
:100D5000EE0FFF1FEE0FFF1FE550FE4F80819181C8
:100D6000A281B381BF70D8CF4F925F926F927F9272
:100D7000AF92BF92CF92DF92EF92FF920F931F93A9
:100D8000CF93DF9300D000D0CDB7DEB78C0149837D
:100D90005A836B837C835901C12CD12C7601412C61
:100DA00082E0582E612C712C49815A816B817C81A3
:100DB0009E012F5F3F4FC8010E943306882339F1FF
:100DC000F8018585A301920104C0220F331F441F3F
:100DD000551F8A95D2F7DA01C901C80ED91EEA1E3D
:100DE000FB1E49815A816B817C818789803111F199
:100DF00088EF9FEFAFEFBFE0481759076A077B07FF
:100E000098F2F501C082D182E282F38281E00F90F4
:100E10000F900F900F90DF91CF911F910F91FF9046
:100E2000EF90DF90CF90BF90AF907F906F905F90EA
:100E30004F90089588EF9FEFA0E0B0E0DDCFCF9313
:100E4000DF93FC012581222321F080E0DF91CF9107
:100E50000895EC018091D804803159F582E08583B2
:100E6000178A108E118E128E8091D9049091DA0417
:100E7000B0E0A0E025E0880F991FAA1FBB1F2A95AC
:100E8000D1F7838B948BA58BB68B81EC94E09C8FF0
:100E90008B8F81E08C831E821F82188619861A86AA
:100EA0001B861C861D861E861F86188A198A1A8A2A
:100EB000CDCF803251F683E085834091DB045091A1
:100EC000DC046091DD047091DE04478B508F618FEC
:100ED000728F9F012D5E3F4F81EC94E00E94B4061B
:100EE0008111D3CFB2CF8F929F92AF92BF92CF9208
:100EF000DF92EF92FF920F931F93CF93DF93EC015A
:100F00008D8181110EC080E0DF91CF911F910F91F3
:100F1000FF90EF90DF90CF90BF90AF909F908F9019
:100F200008950B891C892D893E890417150726070A
:100F3000370748F34A015B01823031F48A869B8689
:100F4000AC86BD8681E0E0CF81149104A104B10498
:100F500049F41E821F82188619861A861B861C86F3
:100F60001D86F0CF0A851B852C853D85EB8DFC8D7C
:100F7000858590E00996B901A801415051096109A0
:100F80007109082E04C076956795579547950A9480
:100F9000D2F775016401E1E0CE1AD108E108F10849
:100FA00004C0F694E794D794C7948A95D2F7C416F0
:100FB000D506E606F70620F0012B022B032B11F5D0
:100FC0008F89988DA98DBA8D8E839F83A887B987C5
:100FD0008E010A5F1F4FC114D104E104F10409F42A
:100FE000ADCF4E815F816885798598018B8D9C8D11
:100FF0000E94330691E0C91AD108E108F108811175
:10100000EACF81CFC41AD50AE60AF70AE1CF2091C8
:10101000B1043091B2042115310541F0AB01BC019E
:10102000C9010E94730791E0811101C090E0892FEE
:1010300008953F924F925F926F927F928F929F920C
:10104000AF92BF92CF92DF92EF92FF920F931F93D6
:10105000CF93DF93CDB7DEB72C970FB6F894DEBFF2
:101060000FBECDBF5C01DC015B968D909C905C97C0
:1010700016964D905D906D907C9019974114510497
:101080006104710409F468C0BFEF4B1A5B0A6B0A74
:101090007B0A312CF40181859285A385B4859C015E
:1010A000AD012F5F3F4F4F4F5F4F29873A874B87E7
:1010B0005C87730162011D821E821F821886F40103
:1010C00081859285A385B4852D813E814F81588588
:1010D000281739074A075B0708F056C089859A85A3
:1010E000AB85BC858C159D05AE05BF0550F482E02F
:1010F000C82ED12CE12CF12C92E0492E512C612CE0
:10110000712C9E012F5F3F4FB701A601C4010E94C1
:1011100033068823C9F189819A81AB81BC81892BEF
:101120008A2B8B2B09F1260137019FEF491A590AA7
:10113000690A790A2D813E814F8158852F5F3F4F83
:101140004F4F5F4F2D833E834F8358873FEFC31A26
:10115000D30AE30AF30AB3CFF401408051806280DE
:1011600073803324339496CFC414D504E604F70473
:1011700009F70FEF1FEF2FEF3FE0B701A601C40102
:101180000E949105811119C080E02C960FB6F89449
:10119000DEBF0FBECDBFDF91CF911F910F91FF90AA
:1011A000EF90DF90CF90BF90AF909F908F907F9007
:1011B0006F905F904F903F900895D50116964D9196
:1011C0005D916D917C9119974115510561057105EE
:1011D00039F097018601C4010E9491058823A1F28C
:1011E000D5011696CD92DD92ED92FC92199733209F
:1011F00051F0D701C6010196A11DB11DF4018083F4
:101200009183A283B383F5018789908DA18DB28DDF
:10121000892B8A2B8B2B39F48481C78AD08EE18E5F
:10122000F28E80688483F50184818062848381E00A
:10123000ACCF2F923F924F925F926F927F928F929C
:101240009F92AF92BF92CF92DF92EF92FF920F9355
:101250001F93CF93DF93EC015B012A018D818111F4
:1012600015C08FEF9FEFDF91CF911F910F91FF90EE
:10127000EF90DF90CF90BF90AF909F908F907F9036
:101280006F905F904F903F902F9008958C8180FFDA
:10129000E8CF0B891C892D893E894A855B856C8541
:1012A0007D85C201B0E0A0E068017901C41AD50AC9
:1012B000E60AF70AC816D906EA06FB0618F428015A
:1012C000441A550A42011E0126E0220E311C8114E7
:1012D000910409F4B3C04A855B856C857D856A01FC
:1012E00081E0D8228B8D9C8D8A019B01E9E03695A7
:1012F000279517950795EA95D1F7ED81E230E1F54D
:10130000FC01628D738D848D958D600F711F821F1E
:10131000931F612C22E0722E6C187D0886149704AE
:1013200008F434012C8126FD04C06114F2E07F062C
:1013300071F4009103011091040120910501309195
:101340000601061717072807390709F053C040E0C0
:101350000E941E04882309F484CFC60185509E4F45
:10136000D5019C01260D371DFC012E173F0709F4FE
:1013700060C041914D93F9CFFC0174807A94702242
:10138000C114D10471F471100CC0452B462B472BAE
:1013900039F58F89988DA98DBA8D8E839F83A88703
:1013A000B987EB8DFC8D6E817F8188859985625030
:1013B000710981099109258504C0660F771F881F6F
:1013C000991F2A95D2F70685178520893189600FE4
:1013D000711F821F931F670D711D811D911D99CF74
:1013E0004E815F816885798591010E943306811164
:1013F000D8CF37CF750183019601AB01BC01809135
:10140000F8019091F9010E94BF02882309F429CFC5
:10141000A60CB71C8A859B85AC85BD85860D971D5E
:10142000A11DB11D8A879B87AC87BD878618970849
:101430004ECF281B390BA20EB31EECCFC20113CF27
:101440001F93CF93DF93FC0125812223D1F1162F27
:10145000EC01848187FF2AC0668577858089918920
:1014600041E00E941E04882361F1EA8980E2E89F3E
:10147000F0011124E550FE4F309719F18D81823033
:1014800040F48B899C89AD89BE89848F958FA68F06
:10149000B78F8F89988D938F828F8F89988DA98D23
:1014A000BA8DB58BA48B8C818F778C83111103C07F
:1014B0008C818F7E8C83812FDF91CF911F910C9433
:1014C000F30380E0DF91CF911F910895FF920F9376
:1014D0001F93CF93DF93EC018D81813041F090E039
:1014E00080E0DF91CF911F910F91FF9008958C8143
:1014F00081FFF5CF82FD1BC00091F8011091F90129
:10150000C8010E944C020E942B02F82EC8010E94C2
:1015100019028FEFF812E3CF8C8185FF1BC060E0CA
:10152000CE010E94200A8C818F7D8C83D8CF4B897D
:101530005C896D897E898A859B85AC85BD8584178C
:101540009507A607B707C1F2CE010E947307811164
:10155000D3CFC5CF4091590150915A0160915B01A1
:1015600070915C01452B462B472B21F080E00E94B7
:10157000CF03B5CF80618C832A853B85317080E0B5
:1015800092E0821B930BADCFCF93DF93EC0161E030
:101590000E94200A882311F01D8281E0DF91CF9103
:1015A00008952F923F924F925F926F927F928F9207
:1015B0009F92AF92BF92CF92DF92EF92FF920F93E2
:1015C0001F93CF93DF9300D000D01F92CDB7DEB72B
:1015D0007C015B01342E5D83DC0115968C9115979F
:1015E000813009F0CEC014962C9021FECAC022FC96
:1015F000B4C0C32CDD8022947FE027222094B22D3A
:10160000B1702B2ED7011A964D915D916D917C9101
:101610001D97C114D10409F428C15B968D919C914A
:101620005C97FC0174807A948A019B0169E036958D
:101630002795179507956A95D1F770228A01117041
:10164000711020C001151105E9F416964D915D91B8
:101650006D917C911997411551056105710509F04E
:1016600099C057968D919D910D90BC91A02D00979A
:10167000A105B10509F0B0C0C7010E94190888236F
:1016800009F47FC080E092E0801B910B46018C152D
:101690009D0508F44C01D7015B964D915C915C97D8
:1016A00016968D919D910D90BC91A02D0297A10948
:1016B000B109FA01258504C0880F991FAA1FBB1F15
:1016C0002A95D2F74685578560897189840F951FC1
:1016D000A61FB71F9C01AD01270D311D411D511DD6
:1016E00029013A01811432E0930609F07BC0809110
:1016F000030190910401A0910501B09106018415A8
:101700009505A605B70559F48FEF9FEFDC0180938F
:10171000030190930401A0930501B0930601022DEB
:101720009501B301A2018091F8019091F9010E9405
:101730006103882331F19EEFB91AC818D908F7015F
:1017400082859385A485B585880D991DA11DB11D40
:1017500082879387A487B58755CFF701438954893A
:101760006589768982859385A485B585481759074B
:101770006A077B0709F43DCFC7010E9473078111F7
:1017800038CF81E090E0D70113969C938E93129707
:1017900080E007C09E012F5F3F4F0E9433068111FA
:1017A00002C090E079C089819A81AB81BC81F70148
:1017B000238D348DF901278948EF5FEF60E070E0F9
:1017C000203121F048EF5FEF6FEF7FE0841795073E
:1017D000A607B70708F050CFF70186839783A08745
:1017E000B18750CF0115110599F5D7011A964D9182
:1017F0005D916D917C911D9753968D919D910D906A
:10180000BC91A02D481759076A077B0708F181E0B2
:101810000E94F303882309F4B4CF4092030150924D
:10182000040160920501709206018091FA018160C5
:101830008093FA01C80185509E4FD5019C01280D67
:10184000391DFC012E173F0759F04D914193FACFF6
:1018500041E0C301B2010E941E048111EBCF91CF80
:10186000281B390BA20EB31E68CFF7018389948918
:10187000A589B68984179507A607B70738F4848128
:10188000438B548B658B768B80688483F7018481CE
:1018900083FD1AC0832D9D810F900F900F900F90A4
:1018A0000F90DF91CF911F910F91FF90EF90DF90FC
:1018B000CF90BF90AF909F908F907F906F905F90F0
:1018C0004F903F902F90089561E0C7010E94200A39
:1018D000882309F456CFDECFCF93DF931F92CDB785
:1018E000DEB7698341E050E0BE016F5F7F4F0E9429
:1018F000D10A0F90DF91CF910895FC01DB01129680
:101900008D919C9113979383828389E391E09183D6
:10191000808314968C911497848315968C911597D7
:10192000858316964D915D916D917C9119974683B3
:101930005783608771871A964D915D916D917C9167
:101940001D9742875387648775871E964D915D91D9
:101950006D917C91519746875787608B718B52961A
:101960008C915297828B53964D915D916D917C91A4
:101970005697438B548B658B768B57964D915D9123
:101980006D917C915A97478B508F618F728F5B96C8
:101990008D919C91948F838F08950895FC01818D82
:1019A000928D009719F061E00C94200A0895DC01F3
:1019B0005996ED91FC913097B9F083899489A58966
:1019C000B6894285538564857585841B950BA60B66
:1019D000B70B811520E89207A105B10538F08FEF0C
:1019E0009FE7A0E0B0E0089590E080E00895DC017A
:1019F00059968D919C91009739F0DC01ED91FC9105
:101A00000480F581E02D099490E080E00895CF9363
:101A1000DF93EC01E98DFA8D309749F481E090E095
:101A20009B838A8390E080E0DF91CF9108951382B9
:101A30001282898D9A8D0E94D10AE98DFA8D2281B8
:101A40003381232B59F7F0CFCF93DF931F92CDB77C
:101A5000DEB76983DC01ED91FC910280F381E02D1A
:101A600041E050E0BE016F5F7F4F09950F90DF911D
:101A7000CF910895CF93DF931F92CDB7DEB741E0AA
:101A800050E0BE016F5F7F4F0E941909019731F44A
:101A9000898190E00F90DF91CF9108958FEF9FEFB4
:101AA000F9CFFC01818D928D009711F00C943A0DC5
:101AB0008FEF9FEF08950F931F93CF93DF93EC0168
:101AC000898D9A8D10E000E0009799F00E943A0D00
:101AD0008C010F3F100769F0898D9A8DFC014285BA
:101AE00053856485758541505109610971090E94CA
:101AF0007307C801DF91CF911F910F9108950F9344
:101B00001F93CF93DF93EC0180E2689FF0011124D3
:101B1000E550FE4F6A8B8091030190910401A091E2
:101B20000501B09106018E879F87A88BB98B048928
:101B3000158930E020E09801112700270F8B188FBE
:101B4000298F3A8F828D938DB0E0A0E0AC01BD016A
:101B5000402B512B622B732B4F8B588F698F7A8FB1
:101B600083858871A9F4848D958DA68DB78D8B8B17
:101B70009C8BAD8BBE8B81E08D8381E08C831E823C
:101B80001F82188619861A861B861C861D8603C02E
:101B9000803131F080E0DF91CF911F910F91089556
:101BA0009E012D5E3F4F8B8D9C8D0E94B406882335
:101BB00089F384E0E1CFAF92BF92CF92DF92EF92B0
:101BC000FF920F931F93CF93DF93CDB7DEB72B9781
:101BD0000FB6F894DEBF0FBECDBF6C01FE0131968B
:101BE000CE010C967F0120E22193E817F907E1F777
:101BF000DA0120E037E09D91B92E9923A9F19E32B8
:101C0000B9F43A3091F480E02B960FB6F894DEBF29
:101C10000FBECDBFDF91CF911F910F91FF90EF903D
:101C2000DF90CF90BF90AF90089528E03AE0E3CFE7
:101C3000E8EBF0E08491882321F031969813FACFF5
:101C4000E2CF321700F38FED890F8E35E0F68FE982
:101C5000890F8A3118F440EEB42EB90EF701E20F65
:101C6000F11DB0822F5FC7CF8981803261F28B0175
:101C7000FB01838D948DF601948F838FFB01168277
:101C80001782108611861286138614861586F8012F
:101C900082859385A485B58543895489658976892C
:101CA00084179507A607B70708F0ADCF25E0B695CE
:101CB000A795979587952A95D1F7F82FFF70AF2EA6
:101CC000F8018581823008F49ECFC8010E943A0D48
:101CD00097FD99CFF80182859385A485B5854F96A8
:101CE000A11DB11D82879387A487B587F0E2AF9EBF
:101CF000B001112465507E4F6115710509F483CF41
:101D0000FB018081882309F1853E19F4B11032C0AE
:101D10001EC04BE050E0C7010E946516892B09F0F8
:101D2000B6CF6A2DC6012B960FB6F894DEBF0FBE54
:101D3000CDBFDF91CF911F910F91FF90EF90DF907A
:101D4000CF90BF90AF900C947F0DB1105CCFF60197
:101D5000A28A8091030190910401A0910501B091A4
:101D6000060186879787A08BB18BFB018081882332
:101D700009F449CFBB24B3948ACF8091B1049091E8
:101D8000B204009761F00E94C40A8091B10490915E
:101D9000B2040E94DC151092B2041092B1040895AE
:101DA000EF92FF920F931F93CF93DF93EC017B0190
:101DB0008A011B821A8288EE93E0A0E0B0E08C8357
:101DC0009D83AE83BF8387E291E0998388838DE111
:101DD00090E00E9440159A8F898F009779F02DE14D
:101DE000F701DC0101900D922A95E1F74CE050E0FB
:101DF000B801CE010C960E947216188EDF91CF9119
:101E00001F910F91FF90EF9008951F920F920FB6C0
:101E10000F9211242F933F934F935F936F937F9370
:101E20008F939F93AF93BF93EF93FF938BEF93E0C9
:101E30000E942C01FF91EF91BF91AF919F918F91E3
:101E40007F916F915F914F913F912F910F900FBEB6
:101E50000F901F9018951F920F920FB60F9211249A
:101E60002F938F939F93EF93FF93E0910B04F09147
:101E70000C048081E0911104F091120482FD1BC0DA
:101E80009081809114048F5F8F73209115048217C5
:101E900041F0E0911404F0E0E550FC4F958F809301
:101EA0001404FF91EF919F918F912F910F900FBE8E
:101EB0000F901F9018958081F4CF1F920F920FB64C
:101EC0000F9211242F933F938F939F93AF93BF93C0
:101ED0008091640190916501A0916601B0916701C4
:101EE0003091630123E0230F2D3758F50196A11D92
:101EF000B11D209363018093640190936501A093C9
:101F00006601B093670180915F0190916001A0919B
:101F10006101B09162010196A11DB11D80935F0125
:101F200090936001A0936101B0936201BF91AF9162
:101F30009F918F913F912F910F900FBE0F901F9007
:101F4000189526E8230F0296A11DB11DD2CF1F922E
:101F50000F920FB60F9211242F933F934F935F93DD
:101F60008F939F93EF93FF938091020186FD3FC073
:101F70002091EB01422F022E000C550B27FF4FC082
:101F800080916A012091690130E4839FC00111248E
:101F900085599E4F820F911DFC01808190E05195E3
:101FA0004195510902C0959587954A95E2F790931E
:101FB0008B0080938A0090938900809388008091A1
:101FC00069018F5F80936901809169018034D0F04D
:101FD00010926901E0916A01F0E0E050FF4F91E05A
:101FE000908380916A01892780936A010BC0809158
:101FF0005E0191E0892780935E0180915E018823D4
:1020000009F4B6CFFF91EF919F918F915F914F911E
:102010003F912F910F900FBE0F901F9018958091B8
:102020006A0130916901F0E48F9FC0011124855944
:102030009E4F830F911DFC01808190E002C0880FAC
:10204000991F2A95E2F7B3CF1F920F920FB60F9206
:1020500011242F933F934F935F936F937F938F93AD
:102060009F93AF93BF93EF93FF93E0916A0191E049
:10207000E927F0E0E050FF4F80818823B9F180919B
:102080006A01892780935D0180916F008F7D809325
:102090006F00789488E994E00E94D70C2091EC01BD
:1020A0003091ED012817390790F18091020183FFEB
:1020B0000CC06CE270E080E090E00E940708809124
:1020C0006F00806280936F0011C080916F008E7DE1
:1020D00080936F00E091B104F091B204309721F049
:1020E000858181110E94BD0E1092EE01FF91EF914A
:1020F000BF91AF919F918F917F916F915F914F9120
:102100003F912F910F900FBE0F901F9018956091E7
:102110005D018091B1049091B204009751F020E4E8
:10212000629FB001112465597E4F40E450E00E9447
:102130001909E0915D01F0E0E050FF4F1082BFCF40
:10214000EBEFF3E01382128288EE93E0A0E0B0E0C0
:1021500084839583A683B78325E131E0318320838F
:1021600025EC30E03587248724EC30E0378726875C
:1021700020EC30E0318B208B21EC30E0338B228B54
:1021800022EC30E0358B248B26EC30E0378B268B2D
:10219000118E128E138E148EE8E9F4E013821282EF
:1021A00084839583A683B78387E291E091838083BC
:1021B000128E118E1486E3EBF4E080E580831182A9
:1021C000E5EBF4E0158216821186138682E090E03A
:1021D000A0E0B0E084879587A687B78713A215A6ED
:1021E00014A689E391E093A782A717A60895CF9339
:1021F000DF93CDB7DEB7C257D1090FB6F894DEBF73
:102200000FBECDBF789484B5826084BD84B58160F3
:1022100084BD85B5826085BD85B5816085BD8091B1
:102220006E00816080936E00109281008091810029
:102230008260809381008091810081608093810021
:10224000809180008160809380008091B1008460E3
:102250008093B1008091B00081608093B000809144
:102260007A00846080937A0080917A008260809303
:102270007A0080917A00816080937A0080917A0060
:10228000806880937A001092C10089E08093F00109
:10229000E0910B04F0910C0482E08083E09107044C
:1022A000F09108041082E0910904F0910A048FEC87
:1022B000808310921304E0910F04F091100486E0E3
:1022C0008083E0910D04F0910E0480818061808311
:1022D000E0910D04F0910E04808188608083E0918C
:1022E0000D04F0910E04808180688083E0910D04DC
:1022F000F0910E0480818F7D80838091E404882397
:1023000021F08FED94E00E94C40A1092C004109254
:10231000BE041092BB041092BA0484E08093B90406
:102320000E9407028B018091B9040E948F0061E036
:102330008091B9040E94BB01FFB6F89480916801B6
:10234000811124C0EAE9F0E08491EEEAF0E0949192
:10235000E82FF0E0EE0FFF1FEA57FF4FA591B49171
:10236000EC91E92321F461E08AE00E94BB018AE05C
:102370000E948F008CB580618CBD8CB580648CBD53
:102380008DE00E948F008BE00E948F008091680199
:102390008F5F80936801FFBE82E58093B304109243
:1023A000B4048091B3049091B4040E9449026AE09D
:1023B000F62E8FEF0E942402FA94F110FACF85EBEB
:1023C00094E00E944C0220E030E0A90160E085EB3F
:1023D00094E00E946202F82E8093BF0461E08617A9
:1023E00051F10E940702601B710B613D774058F369
:1023F00081E08093BA0485EB94E00E9419024BE0DF
:1024000050E061E471E08BEF93E00E94AE0042E0A7
:1024100050E06DE471E08BEF93E00E94AE0000E0CD
:1024200010E001151105E9F30E9418018823C9F392
:102430000E940000F6CF2AEA31E040E050E068E078
:1024400085EB94E00E94620282FF2AC0F092C004F1
:102450008091C004C12CD12CE12C40E4F42E8230B8
:1024600019F0C12CD12C760120E030E0A90167E3FE
:1024700085EB94E00E946202A701960169E285EB78
:1024800094E00E9462028093BF048823D1F00E94EE
:102490000702601B710B613D774030F388E0A9CFE4
:1024A00054E0F52E0E942B028093BF04FA94F110A1
:1024B000F9CF8A3A11F082E09CCF82E08093C00489
:1024C000C7CF8091C0048230D1F420E030E0A90170
:1024D0006AE385EB94E00E946202882311F086E0B3
:1024E00088CF0E942B02807C803C19F483E080938B
:1024F000C0040E942B020E942B020E942B0285EB3B
:1025000094E00E94190280E58093B3041092B40411
:1025100081E00E946804882309F45DC08FED94E097
:102520000E941F07882309F46ACF8FEF8093EB0185
:102530009091F0018091F701981709F478C01092FA
:10254000EE0180916F008E7D80936F000E94BD0E22
:102550008091800090E0880F892F881F990B019748
:1025600009F040C0809188009091890050E040E0DF
:102570002091F5013091F6014217530798F570E06C
:1025800060E097FD05C0B9018217930708F4BC010C
:1025900070938B0060938A0070E060E097FD05C047
:1025A000B9018217930708F4BC0170938900609306
:1025B0008800225331096AE070E0E0918400F091D4
:1025C0008500E217F307C8F361507109B1F74F5F57
:1025D0005F4F0197CDCF80E00E946804882309F403
:1025E0000ECF9CCF809102018062809302011092F5
:1025F0008100109280008091F0010E948F008091F4
:10260000F001863009F473C18E3209F472C185304D
:1026100009F071C181E08093EF018DB581608DBDBE
:102620008CB58C7F8CBD8091F0018093F701109266
:10263000EE0180916F008E7D80936F000E94BD0E31
:102640001C821B8209E311E01A8309831E82CE01DA
:1026500001960E941F07BE016F5F7F4FCE01CB9690
:102660000E947D0C19A218A21F8F0E8F1BA221960B
:102670008FAD2197811142C16C961FAE1EAE6C9733
:1026800088EE93E0A0E0B0E0A0968CAF9DAFAEAF37
:10269000BFAFA09787E291E06A969FAF8EAF6A972F
:1026A000E3961FAE1EAEE397A5961FAEA5976C9658
:1026B0008EAD9FAD6C9790939B0480939A04A096E7
:1026C0008CAD9DADAEADBFADA09780939C049093B3
:1026D0009D04A0939E04B0939F04A4968CAD9DADE1
:1026E000AEADBFADA4978093A0049093A104A09336
:1026F000A204B093A304A8E5B0E0AC0FBD1F1C96E4
:10270000E4EAF4E08D91819364E0E13BF607D1F7D0
:10271000E3968EAD9FADE3979093B2048093B1049E
:1027200068E070E080E090E00E94070880910D0171
:1027300090910E01A0910F01B091100189839A83AD
:10274000AB83BC838E010F5F1F4F7E0175E0E70EE8
:10275000F11C88E994E00E94510DF80121918F014C
:10276000022E000C330B8217930719F4EE15FF05A8
:1027700081F768E170E080E090E00E94070888E956
:1027800094E00E94510D9093F4018093F30188E945
:1027900094E00E94510D20E0382F8091F301909138
:1027A000F401282B392B3093F4012093F3016CE2D0
:1027B00070E080E090E00E94070880E490E0909351
:1027C000ED018093EC0181E08093EE0180910201A4
:1027D000982F9F77909302012091F3013091F4019B
:1027E0002B3F3F4A30F020EC3DE53093F40120933D
:1027F000F3012091F3013091F40150E040E086FFB5
:102800009FC060E075E38CE090E00E94DF146AE016
:10281000629FC001639F900D11249093F6018093F5
:10282000F50188E994E00E94510D8C0188E994E05B
:102830000E945B0D800F911F97FD019695958795DE
:102840003091EB01432F032E000C550B13160CF0A7
:102850007CC04091880050918900BA0102C07695F1
:1028600067953A95E2F79B01992750E040E02817D9
:10287000390708F077C02F5F3F4F8217930708F49E
:102880009C01FA01E559FE4F20834F5F5F4F4034B2
:10289000510589F750E040E02F5F3F4F82179307C3
:1028A00008F49C01FA01E555FE4F20834F5F5F4F0E
:1028B0004034510589F710926A011092000110927C
:1028C000010110926901F8948091F5019091F6014F
:1028D000909387008093860082EB8093800089E14B
:1028E0008093810081E280936F00789498CD82E09C
:1028F00092CE83E090CE1092EF018FCE40E551E072
:10290000BE01655C7F4FCE014E960E94DB0D882391
:1029100009F4B2CECE01CB960E94C40ABE01625E1B
:102920007F4FCE0101960E947D0C40E551E0BE0133
:102930006F5F7F4FCE01885A9F4F0E94D00EB7CE57
:1029400060E07AE688E190E060CF209188003091E5
:10295000890051954195510902C0220F331F4A95B4
:10296000E2F782CFB901615071096817790718F150
:102970002115310509F09B01FA01E559FE4F20832D
:102980004F5F5F4F4034510569F750E040E0B901B7
:10299000615071096817790780F02115310509F038
:1029A0009B01FA01E555FE4F20834F5F5F4F403496
:1029B000510569F780CF9C01DFCF9C01F2CF052E36
:1029C00097FB1EF400940E94F61457FD07D00E9456
:1029D000091507FC03D04EF40C94F614509540955D
:1029E000309521953F4F4F4F5F4F089590958095BB
:1029F000709561957F4F8F4F9F4F08950E943115BD
:102A0000A59F900DB49F900DA49F800D911D112442
:102A10000895A1E21A2EAA1BBB1BFD010DC0AA1F1F
:102A2000BB1FEE1FFF1FA217B307E407F50720F037
:102A3000A21BB30BE40BF50B661F771F881F991FB2
:102A40001A9469F760957095809590959B01AC01FB
:102A5000BD01CF010895EE0FFF1F0590F491E02D09
:102A60000994A29FB001B39FC001A39F700D811D67
:102A70001124911DB29F700D811D1124911D089587
:102A80000F931F93CF93DF938230910510F482E070
:102A900090E0E0910005F091010530E020E0B0E029
:102AA000A0E0309799F42115310509F44AC0281B9C
:102AB000390B24303105D8F58A819B816115710568
:102AC00089F1FB0193838283FE0111C04081518112
:102AD0000281138148175907E0F04817590799F404
:102AE000109761F012960C93129713961C933296DE
:102AF000CF01DF91CF911F910F91089500930005B1
:102B000010930105F4CF2115310551F042175307F9
:102B100038F0A901DB019A01BD01DF01F801C1CF45
:102B2000EF01F9CF9093010580930005CDCFFE0111
:102B3000E20FF31F81939193225031093983288347
:102B4000D7CF2091FE043091FF04232B41F4209134
:102B5000090130910A013093FF042093FE04209173
:102B60000701309108012115310541F42DB73EB719
:102B700040910B0150910C01241B350BE091FE0498
:102B8000F091FF04E217F307A0F42E1B3F0B281768
:102B9000390778F0AC014E5F5F4F2417350748F0D6
:102BA0004E0F5F1F5093FF044093FE048193919357
:102BB0009FCFF0E0E0E09CCFCF93DF930097E9F068
:102BC000FC01329713821282A0910005B091010599
:102BD000ED0130E020E01097A1F420813181820FD7
:102BE000931F2091FE043091FF042817390709F044
:102BF00061C0F093FF04E093FE04DF91CF9108954C
:102C0000EA01CE17DF07E8F54A815B819E01411595
:102C10005105B1F7E901FB83EA8349915991C40F4A
:102C2000D51FEC17FD0761F4808191810296840F16
:102C3000951FE90199838883828193819B838A838D
:102C4000F0E0E0E012968D919C9113970097B9F512
:102C50002D913C911197CD010296820F931F2091E7
:102C6000FE043091FF042817390739F6309751F5E3
:102C70001092010510920005B093FF04A093FE048A
:102C8000BCCFD383C28340815181840F951FC81765
:102C9000D90761F44E5F5F4F88819981480F591FB2
:102CA000518340838A819B819383828321153105DF
:102CB00009F0B0CFF0930105E09300059ECFFD0130
:102CC000DC01C0CF13821282D7CFFB01DC0104C02C
:102CD0008D910190801921F441505040C8F7881B14
:102CE000990B0895FB01DC014150504048F00190E0
:102CF0000D920020C9F701C01D9241505040E0F7ED
:062D00000895F894FFCFD6
:102D0600010160FFFFFFFF000002058000574156EA
:102D160045000000004E01AE00DB009B010C01EAFD
:102D260000FE0000000000240D070DF70CCE0CD7A6
:102D36000C510D5B0D000000006C0CAE00660ACD58
:102D46000C5344206661696C2D646F63000D0A00A4
:062D5600312E77617600CA
:00000001FF
